:020000040800F2
:10000000981500203502000839290008B922000897
:1000100035290008F50700083D47000800000000EA
:10002000000000000000000000000000CB3B0008C2
:100030000D1B00080000000099330008B13D0008C6
:100040004F0200084F0200084F0200085139000813
:100050004F0200084F0200084F0200084F0200083C
:100060004F0200084F0200084F0200084F0200082C
:100070004F0200084F0200084F0200084F0200081C
:100080004F0200084F0200084F0200084F0200080C
:10009000ED0D00084F0200084F0200084F02000853
:1000A0004F0200084F0200084F0200084F020008EC
:1000B000293E00084F0200084F0200084F020008C6
:1000C0004F0200084F0200084F0200084F020008CC
:1000D0004F0200084F020008B54200084F02000816
:1000E0004F0200084F0200084F0200080000000005
:1000F0000000000000000000000000000000000000
:1001000000000000000000004F0200084F0200083D
:100110004F0200084F0200084F0200084F0200087B
:100120004F0200084F0200084F0200084F0200086B
:100130004F0200084F0200084F0200084F0200085B
:100140003D1000084F0200084F0200084F0200084F
:1001500000F002F800F05FF80AA090E8000C82447A
:100160008344AAF10107DA4501D100F054F8AFF257
:10017000090EBAE80F0013F0010F18BFFB1A43F085
:10018000010318474C5200006C5200000A444FF023
:10019000000C10F8013B13F0070408BF10F8014BE6
:1001A0001D1108BF10F8015B641E05D010F8016B2B
:1001B000641E01F8016BF9D113F0080F1EBF10F88F
:1001C000014BAD1C0C1B09D16D1E58BF01F801CBB2
:1001D000FAD505E014F8016B01F8016B6D1EF9D535
:1001E0009142D6D37047000000230024002500264A
:1001F000103A28BF78C1FBD8520728BF30C148BF8A
:100200000B607047782900F06980002070471FB5A7
:100210001FBD10B510BD00F053FA1146FFF7F7FFF0
:1002200004F06AFC00F071FA03B4FFF7F2FF03BCBC
:1002300004F0BDFA0948804708480047FEE7FEE79A
:10024000FEE7FEE7FEE7FEE7FEE7FEE7FEE7FEE786
:1002500003480449044A054B704700005101000857
:10026000980F002098150020981100209811002068
:10027000704700000FB4044910B503AA029800F0BB
:10028000F1F910BC5DF814FB0C02002070B50446B7
:1002900085690068C10601D5302600E02026C00728
:1002A00007D070BDD4E9012130469047206A401C38
:1002B00020626D1EF6D570BD70B504468569007864
:1002C000C00707D170BDD4E9012120209047206AE2
:1002D000401C20626D1EF6D570BD000070B504464E
:1002E0000D4621461068AFF300802188090502D52C
:1002F0000F4A7A4402E00E4A7A440E32002104F199
:10030000240305E000F00F060009965D5E54491CC9
:100310000028F7D120780023000704D5702D02D0E3
:1003200009B1022311322046BDE8704000F040B907
:10033000A05000002DE9F05F894604464FF0000A06
:10034000DFF824B1FB44C0F820A02046E1688847CC
:1003500000287DD0252806D0D4E901219047206AC5
:10036000401C2062F1E700255F462046E16888478F
:100370002028064607DB312E05D2B81910F8200CCC
:1003800008B10543F1E7A80701D525F00405C4F835
:100390001CA00027C4F818A02A2E09D0304604F06B
:1003A000FFF938B304EB8708303EC8F8186019E04D
:1003B00059F8041B204604EB87029161E1688847E5
:1003C000012F064618D1E069002820DA25F0200523
:1003D0001DE0D8F8180000EB800006EB4000303834
:1003E000C8F818002046E1688847064604F0D8F9A6
:1003F0000028EED1012F0AD02E2E08D12046E16828
:1004000088477F1C0646022F45F02005C4DBA06903
:10041000002803DA404245F00105A061E80701D059
:1004200025F01005A6B1A6F14100192802D8203602
:1004300045F400654A463146204625604D46FFF7A3
:10044000E1FE60B1012807D0ED1D25F0070000E0B6
:1004500007E000F1080978E705F1040975E730467F
:100460007AE7206ABDE8F09F76500000032A40F248
:10047000308010F0030C00F0158011F8013BBCF146
:10048000020F624498BF11F801CB00F8013B38BF5E
:1004900011F8013BA2F1040298BF00F801CB38BF6C
:1004A00000F8013B11F0030300F02580083AC0F08A
:1004B000088051F8043B083A51F804CBA0E8081032
:1004C000F5E7121D5CBF51F8043B40F8043BAFF365
:1004D0000080D20724BF11F8013B11F801CB48BFBF
:1004E00011F8012B24BF00F8013B00F801CB48BFF5
:1004F00000F8012B704710B5203AC0F00B80B1E82E
:100500001850203AA0E81850B1E81850A0E8185048
:10051000BFF4F5AF5FEA027C24BFB1E81850A0E851
:10052000185044BF18C918C0BDE810405FEA827C6B
:1005300024BF51F8043B40F8043B08BF7047D20782
:1005400028BF31F8023B48BF11F8012B28BF20F823
:10055000023B48BF00F8012B70474FF0000200B586
:10056000134694469646203922BFA0E80C50A0E8D6
:100570000C50B1F12001BFF4F7AF090728BFA0E884
:100580000C5048BF0CC05DF804EB890028BF40F850
:10059000042B08BF704748BF20F8022B11F0804F92
:1005A00018BF00F8012B70477047704770477047BD
:1005B0002DE9F0470D4699469246044600F124087D
:1005C0000168880604D5E06921F01001216000E08F
:1005D0000120A84201DD471B00E00027A1697A192C
:1005E00002EB0900081AA0612078C00602D4204658
:1005F000FFF74CFE002608E0D4E901211AF80600B6
:100600009047206A401C761C20624E45F4DB20781F
:10061000C0060AD52046FFF739FE06E0D4E90121DD
:1006200030209047206A401C2062381EA7F1010745
:10063000F4DC07E0D4E9012118F805009047206AAE
:10064000401C2062281EA5F10105F3DC2046FFF7BF
:1006500033FE2078000602D50220BDE8F087012095
:10066000FBE70000074B70B50D467B4400F011F826
:100670000446284600F020F810B14FF0FF3070BD5E
:10068000204670BDFB43000001694A1C02610878E6
:10069000704700B58FB0CDE90131002105910549C2
:1006A0007944CDE9031011466846FFF743FE0FB0C9
:1006B00000BD0000E5FFFFFF007B00F080007047F9
:1006C000754600F02BF8AE4605006946534620F00B
:1006D0000700854618B020B5FFF7BAFDBDE82040F9
:1006E0004FF000064FF000074FF000084FF0000BEE
:1006F00021F00701AC46ACE8C009ACE8C009ACE8A1
:10070000C009ACE8C0098D46704710B50446AFF388
:1007100000802046BDE81040FFF786BD00487047C6
:10072000340F002070B5002400250EE02748005D3E
:1007300048B12648005D202805D02448005D2449A2
:100740004855681CC5B2601CC4B222480078844277
:10075000ECDB20480570002433E004EBC40101EB1E
:1007600004111D4A02EB410003F0D6FA1B49087040
:1007700018480078097888421FD100250FE01448F6
:10078000405D04EBC40101EB0411134A02EB41018B
:10079000495D884200D100E005E0681CC5B20D4803
:1007A00000788542EBDB00BF0A480078854205D11E
:1007B0000B4951F82400804770BD00E000BF601C69
:1007C000C4B2042CC9DB00BFF6E700003E0D0020D8
:1007D0004A0B0020250400202704002026040020C6
:1007E000F004002010B5012002F044FE002002F0C9
:1007F00041FE10BD00BFFEE710B5FC4A0021FC48D9
:1008000000F0BBFEF9480068FA49096888420DD13A
:10081000F648C07A30B9F548807B18B90020F6490F
:10082000087002E00120F449087010BDEF4800682C
:10083000F249096888420BD1EC48007BF12803D1CA
:100840000120EF49087002E00020ED490870ECE754
:10085000E6480068EB49096888422ED1E348407BAE
:1008600000F00400042810D1E748007830B90120D6
:10087000E5490870E549E64800F0EEFB0020E5494F
:100880000870062001F06AFD16E0D848407B00F0B1
:10089000010058B1DC48007870B9022003F060FF15
:1008A0000120D949087001F059FD05E0CF48407B8F
:1008B00010B90020D4490870B7E7CC480068D64981
:1008C000096888420AD1C948C07A18B90020D349BA
:1008D000087002E00120D1490870A6E7C34800680B
:1008E000CF49096888420AD1C048C07A18B90020A7
:1008F000CC49087002E00120CA49087095E7BB485E
:100900000068C949096888420AD1B848C07A18B94C
:100910000020C649087002E00120C449087084E73D
:10092000B2480068C249096888420AD1AF48C07A13
:1009300018B90020BF49087002E00120BD490870C5
:1009400073E7AA480068BC490968884278D1A7487B
:10095000407B00F00F00082805D0A448407B00F041
:100960000F00092825D1B5480078012811D1B449D4
:10097000A74800F071FBB349A54800F06DFB0621C4
:10098000012003F0AFF9B048007810B90120AF4959
:100990000870AF480078012805D10220A7490870E7
:1009A00001F0DCFC4AE00020AA490870A349087065
:1009B00044E08E48407B00F00F000A2822D19F4877
:1009C000007801280DD0A449914800F045FB012092
:1009D00001F0C4FC0020A14908703221022003F07C
:1009E00081F90120954908709D480078012805D1BA
:1009F00000209B490870012003F0B2FE00209949B5
:100A000008801BE07948407B00F00F00062815D1D4
:100A10008A48007801280BD189497D4800F01CFBE9
:100A200088497B4800F018FB0621012003F05AF9A1
:100A3000022001F093FC002080490870F5E6FFE7F2
:100A40006A48006888490968884222D16748C07AA4
:100A5000882800D1E9E66548C07A00F00F00012837
:100A600013D18248007848B16048C07A00F0F000A5
:100A7000102803D100207E49087009E07B480078E7
:100A800030B900207A49087002E0012078490870E6
:100A9000CBE6564800687749096888422BD153480D
:100AA000007C00F0400028B3734801780078401CB7
:100AB000714A10700F291DD1032070490870002061
:100AC0006F4908705049087065480078012805D1C1
:100AD000002063490870012003F042FE01206949AB
:100AE0000870694908706949087040F6B8310320F8
:100AF00003F0F8F899E63D480068654909688842BE
:100B000071D16448007800F0010000B98DE63748E3
:100B1000007B3649C97A00EB012084B25E48008828
:100B2000844261D15D4801680068401C5B4A1060E6
:100B300046290DD1B4F5807F14D159480078012899
:100B400007D103F00DFE0020554908705549087083
:100B500001E1022003F004FE0120514908705149CF
:100B60000870F8E0B4F5806F14D14F480078012880
:100B700007D103F0F5FD00204B4908704949487042
:100B8000E9E0022003F0ECFD0120474908704549E7
:100B90004870E0E0B4F5805F15D144480078012842
:100BA00008D10020414908703E49C870012003F077
:100BB000D7FDD0E001203D4908703A49C8700220B5
:100BC00003F0CEFDC7E0B4F5804F7BD1204800781C
:100BD00001286ED100201E49087032494871012059
:100BE00003F0BEFDB7E0B9E0B2E06BE04C050020D9
:100BF00000640040740300203B0200200004002039
:100C0000490200206003002041020020E44F000858
:100C1000006800404C020020304F000837020020DE
:100C2000444F000839020020584F000838020020C5
:100C30006C4F00083A020020B00300202D02002073
:100C400084500008985000083D0200204E02002009
:100C5000500200206B0200205C500008440200207B
:100C60006D02002066020020C40300204D02002017
:100C70003C020020D80300205B0200202C02002050
:100C800043020020530200201002002055020020E1
:100C90009C0300205C02002064020020600200200F
:100CA0004202002078020020450200204702002076
:100CB000FFE701204149087041494871022003F0D3
:100CC0004FFD48E0012C14D13E480078012808D19E
:100CD00000203C4908703A498870022003F040FD2A
:100CE00039E00120374908703549887003F038FD34
:100CF00031E0042C14D134480078012808D10020B8
:100D0000314908702E498871022003F029FD22E044
:100D100001202D4908702A49887103F021FD1AE04D
:100D2000102C14D129480078012808D10020274927
:100D300008702349C871022003F012FD0BE0012066
:100D4000224908701E49C87103F00AFD03E002E061
:100D500000201F4908601F48048066E51E4800689F
:100D60001E490968884226D101201D4908700421C6
:100D70001C4800F00BFD1849897C88421AD10321D8
:100D8000184800F003FD1449497C884212D1022121
:100D9000144800F0FBFC1049097C88420AD101216B
:100DA000104800F0F3FC0C49C97B884202D10120B5
:100DB0000D49087039E500BF37E5000050020020FA
:100DC00078020020460200204F020020540200203A
:100DD00060020020640200204C0500201003002067
:100DE0003F020020570200204802002010B5FFF704
:100DF00003FD10BD10B5724A0021724800F0BDFB22
:100E00006F48006870490968884216D16C48C07AFA
:100E100000F0010028B101206C4908706C4908718C
:100E20000AE06748C07A00F00200022804D10020DE
:100E3000664908706649087110BD614800686549D7
:100E4000096888420BD15E48407C052803D1012007
:100E50006149087002E000205F490870ECE75848DB
:100E600000685E490968884228D15548817B5B4803
:100E7000807B814221D15248C17B5848C07B81424E
:100E80001BD14F48017C5548007C814215D14C480C
:100E9000417C5248407C81420FD10120504908706A
:100EA0004748807C00F00F000F2803D100204D49F7
:100EB000087002E001204B490870BDE74048006817
:100EC00049490968884278D13D48407B00F00F00CD
:100ED000464908703A48007B09780844434908703D
:100EE0000846007818B900204149087002E0012046
:100EF0003F4908703D48007800F0010060B13D486E
:100F0000007800F0010038B93B480078012803D090
:100F10003A492C4800F0A0F839480078344909785B
:100F2000884237D0002037490870374800780128B8
:100F300005D1002034490870012003F011FC2B4832
:100F4000007880B9002031490870092102F0CAFEFA
:100F50002F48007838B12F492F4800F07DF82D49EF
:100F60002D4800F079F800202C4908702C490880A1
:100F70001F480078224908702A48007838B90120B3
:100F80002949087040F6B831032002F0ABFE00207A
:100F9000264908702648007801280CD10848C07AF4
:100FA000822808D12348007828B184202249C872B9
:100FB000194800F047F83FE7FFE700BF3CE70000B3
:100FC0004C05002000680040804F00084D020020C2
:100FD000780200204C5100085102002038510008CE
:100FE0005202002018040020880300205C02002028
:100FF0003D0200205D0200202D020020A84F0008C5
:101000003E0200204E0200206D0200206B020020F4
:1010100046020020FC50000800640040200400202C
:1010200066020020540200205302002043020020E8
:101030004C02002047020020EC03002010B5FFF70F
:10104000D9FE10BD70B504460D462946204600F075
:1010500009FB0646012070BD70B504460D461322FB
:1010600029460448FFF747FA02492046FFF7EAFFFE
:1010700070BD0000FC02002000B587B001214FF0D8
:10108000C06002F0B7F98B4800F03CF98A4800F0E4
:1010900039F900208DF8160001208DF81700002086
:1010A0008DF818008DF819008DF81A008DF81B00C6
:1010B0008DF812008DF8130007208DF8140006201B
:1010C0008DF815007D48407BADF8100004A97948E3
:1010D00000F0C9F97948807BADF8100004A9764882
:1010E00000F0C1F900208DF80A0001208DF80B00F6
:1010F00000208DF80C00724800684FF6FF7101EA7D
:101100004010ADF800006F48006801EA4010ADF8EB
:1011100002006D48006801EA4010ADF804006B4819
:10112000006801EA4010ADF806000020ADF80800A4
:1011300001208DF80D00684600F008F901208DF8B7
:101140000A008DF80B0000208DF80C006048006844
:101150004FF6FF7101EA4010ADF800005D480068ED
:1011600001EA4010ADF802005B48006801EA401057
:10117000ADF804005948006801EA4010ADF80600D7
:101180000020ADF8080001208DF80D00684600F041
:10119000DDF802208DF80A0001208DF80B000020F8
:1011A0008DF80C00454800684FF6FF7101EA4010C9
:1011B000ADF800004A48006801EA4010ADF80200AE
:1011C0004848006801EA4010ADF80400464800684D
:1011D00001EA4010ADF806000020ADF8080001203B
:1011E0008DF80D00684600F0B1F803208DF80A0074
:1011F00001208DF80B0000208DF80C003B480068A2
:101200004FF6FF7101EA4010ADF800003848006861
:1012100001EA4010ADF802003648006801EA4010CB
:10122000ADF804003448006801EA4010ADF806004B
:101230000020ADF8080001208DF80D00684600F090
:1012400085F8012202211B4800F004F90E208DF8D8
:101250000A0001208DF80B0000208DF80C002648B4
:1012600000684FF6FF7101EA4010ADF80000234816
:10127000006801EA4010ADF802002148006801EA68
:101280004010ADF804001648006801EA4010ADF8BF
:1012900006000020ADF8080001208DF80D0068461A
:1012A00000F054F801220221034800F0D3F807B0FF
:1012B00000BD0000006400400068004010030020F2
:1012C000944F0008304F0008444F0008584F000862
:1012D0006C4F0008AC500008C403002074030020C9
:1012E000880300209C030020B0030020600300203E
:1012F00000040020D8030020804F00083851000867
:101300004C51000810B504460B48844209D1012114
:10131000480602F07FF800214FF0007002F07AF8E2
:1013200008E00121880602F075F800214FF0806086
:1013300002F070F810BD00000064004011B92022D6
:10134000C26001E0202202617047000010B5002158
:10135000837A012202FA03F13D4A126842F0010247
:101360003B4B1A603A4A1C3212688A43384B1C3392
:101370001A60027BCAB9364A0C3212688A43344B6F
:101380000C331A604288C38842EA0343304A403231
:10139000847A42F834300288838842EA03432C4A34
:1013A0004032847A02EBC4025360027B012A19D1D5
:1013B000274A0C3212680A43254B0C331A604288C4
:1013C000038842EA0343224A4032847A42F83430A6
:1013D000C288838842EA03431D4A4032847A02EB82
:1013E000C4025360C27A3AB9194A121D12688A437C
:1013F000174B1B1D1A6006E0154A121D12680A439E
:10140000134B1B1D1A60028932B9114A143212683B
:101410008A430F4B14331A600289012A06D10C4A01
:10142000143212680A430A4B14331A60427B012AB1
:1014300006D1074A1C3212680A43054B1C331A6056
:10144000034A126822F00102014B1A6010BD00002D
:10145000006600401AB143690B43436102E04369EF
:101460008B434361704730B5024600200023146867
:1014700024F002041460146844F00104146000E0D5
:101480005B1C546804F001041CB94FF6FF74A342BE
:10149000F6D1546804F001040CB900206CE08C799A
:1014A000012C04D1146844F08004146003E0146833
:1014B00024F080041460CC79012C04D1146844F029
:1014C0004004146003E0146824F0400414600C7AB3
:1014D000012C04D1146844F02004146003E0146863
:1014E00024F0200414604C7A012C04D1146844F0D8
:1014F0001004146003E0146824F0100414608C7A63
:10150000012C04D1146844F00804146003E014684A
:1015100024F008041460CC7A012C04D1146844F03F
:101520000404146003E0146824F0040414608C784C
:10153000A407CD7844EA05640D7944EA05444D7961
:1015400044EA05540D886D1E2C43D461146824F0C0
:1015500001041460002300E05B1C546804F00104E3
:101560001CB14FF6FF74A342F6D1546804F0010495
:101570000CB1002000E0012030BD30B505460C461E
:10158000134605F5D87000EB0410006800F0040065
:101590001872187A50B905F5D87000EB041000687D
:1015A00040F2FF7101EA5050186009E005F5D8706B
:1015B00000EB041000686FF0604101EAD000586051
:1015C00005F5D87000EB0410006800F002005872B6
:1015D00005F5D87000EB0410406800F00F00987219
:1015E00005F5D87000EB04104068000AD87405F5C2
:1015F000D87000EB04108068D87205F5D87000EB45
:1016000004108068010A197305F5D87000EB041006
:101610008068010C597305F5D87000EB04108068E0
:10162000000E987305F5D87000EB0410C068D873ED
:1016300005F5D87000EB0410C068010A197405F5AF
:10164000D87000EB0410C068010C597405F5D8700F
:1016500000EB0410C068000E987421462846FFF77E
:101660006DFE30BD10B502460020936803F0806324
:10167000B3F1806F00D110E0936803F00063B3F121
:10168000006F01D1012008E0936803F08053B3F1AB
:10169000805F01D1022000E00420042874D002F50C
:1016A000C07303EB00131B6803F0010402F5C07361
:1016B00003EB00131C600B7A7BB94B7A0C8843EA6E
:1016C000445302F5C07404EB00142468234302F56C
:1016D000C07404EB0014236010E00B7A4C6843EAFA
:1016E000C4034C7A234302F5C07404EB001424684D
:1016F000234302F5C07404EB001423608B7A03F0DB
:101700000F038B7202F5C07303EB00135B6823F0C9
:101710000F0402F5C07303EB00135C6002F5C073A5
:1017200003EB00135B688C7A234302F5C07404EB6F
:10173000001463608B7B1C064B7B44EA03440B7BE9
:1017400044EA0323CC7A234302F5C07404EB00146B
:10175000A3608B7C1C064B7C44EA03440B7C44EA6C
:101760000323CC7B234302F5C07404EB0014E36035
:1017700002F5C07303EB00131B6843F0010402F58C
:10178000C07303EB00131C6010BD000030B50246AF
:101790000B460020002105E0545C4440034D285DC9
:1017A0004C1CE1B29942F7DB30BD000064520008E6
:1017B00010B56A480078012803D0694800780128EC
:1017C00000D110BD67480078FF2814D06648007823
:1017D000012810D16348007801280CD1FF2061490D
:1017E00008700120614908706148007818B1022032
:1017F00060490870E5E760480078FF287ED05E48C1
:10180000007801284ED15D480078042823D05C4838
:101810000078401C5A4908700846007859490978F0
:10182000884213DD022053490870002056490860A1
:10183000564908705648007870BB01205549087019
:1018400040F6B831032002F04DFA25E004210020D3
:1018500002F048FA20E05048007818B11421002026
:1018600002F040FA4D480088401C4C490880002096
:10187000464908704948008878280DDB42480068CE
:10188000782809D301203549087045480078454932
:101890000870022002F064FF00203F4908704249AE
:1018A00008704FE04148007828B94148007810B9E5
:1018B0000420324908703C480078401C3A490870BE
:1018C0002E480078042829D13348007818B9092116
:1018D000002002F007FA30480078401C2E490870BA
:1018E00008460078012820DD28480078401C274958
:1018F000087008460078052804DC00E02CE003208E
:101900001C4908702248007878B9012021490870E4
:1019100040F6B831032002F0E5F906E018480078F7
:1019200018B10921002002F0DDF9002014490870E7
:101930001D480078032805DD1848008810B10020F4
:1019400016490880FF200C490870074800780128D4
:1019500002D1FF200349087000BF32E76D0200206A
:1019600042020020180400205202002043020020FE
:101970005502002010020020190400202C02002033
:101980006C020020340200201C04002036020020DB
:1019900054020020530200206B0200206602002047
:1019A0003D0200203E020020680200203C02002090
:1019B0006902002010B500240BE00748005D0128F3
:1019C00005D1002004490855204601F01BFC601C8D
:1019D000C4B2072CF1DB10BD24020020FEB50020AC
:1019E0000090019002904048007840490978884270
:1019F00018D04FF4967000F08BF83C48007868B12E
:101A00003B48007850B13B493B48FFF725FB642039
:101A100000F07EF839493848FFF71EFB334800785C
:101A200031490870002408E03548005D3549095DFA
:101A3000884200D003E0601CC4B2082CF4DB00BF75
:101A4000082C4FD02F4903C9CDE900010821684671
:101A5000FFF79CFE8DF808000024002518E01DF813
:101A60000410601C1DF8000001EB002086B226491E
:101A700001EB4500314602F0BFFB2349403101EB49
:101A80004500314602F0B8FB681CC5B2A01CC4B2C8
:101A9000082CE4DD042269461B4800F045F90821C2
:101AA0006846FFF773FE9DF80810884200D0FEBD1F
:101AB000042269461448403000F036F9082168468F
:101AC000FFF764FE9DF80810884200D0EFE700247D
:101AD00005E00C48005D0A490855601CC4B2082C9A
:101AE000F7DBE4E700BFE2E75D0200205C020020D4
:101AF00046020020FC50000800640040E850000846
:101B0000800200207802002000F8010870470000E1
:101B100001B500204FF0E02188610846006940F0DF
:101B200001000861009800010749086000BF0648ED
:101B300000680028FBD14FF0E020006920F0010090
:101B40004FF0E021086108BD1402002010B500F03C
:101B500033F800F001F810BD10B5134800781349B0
:101B60000978884200D110BD19E011480F49097861
:101B7000405C1049087003F00FF80C480078401CD6
:101B80000A49087008460078FA2801DB002008702E
:101B90000648007804490978884200D100E0E4E76B
:101BA00000BF00BFDFE70000080500200D05002092
:101BB000440C00200905002010B518480078184989
:101BC0000978884200D110BD23E0164814490978ED
:101BD000405C1549087008460178144802F07FFC03
:101BE00000BF1248008800F080000028F9D00C489F
:101BF0000078401C0A49087008460078FA2801DB82
:101C0000002008700648007804490978884200D10D
:101C100000E0DAE700BF00BFD5E700000E050020B6
:101C200010050020380E00200F0500200044004061
:101C300070B50546042440F6FF7000F09BF804469A
:101C4000042C19D10D48006940F002000B490861CD
:101C500008464561006940F04000086140F6FF70A9
:101C600000F088F80446052C06D00448006941F6C7
:101C7000FD71084001490861204670BD0020024006
:101C800004200B49C96801F0010109B101200EE0EF
:101C90000749C96801F0040109B1022007E00449BD
:101CA000C96801F0100109B1032000E00420704769
:101CB000002002400348006940F0800001490861AB
:101CC00070470000002002400549096821F010011A
:101CD000034A116011460968014311607047000012
:101CE0000020024070B505460E4604240F2000F087
:101CF00041F80446042C13D10A48006940F0010061
:101D0000084908612E800F2000F034F80446052CA5
:101D100006D00448006941F6FE7108400149086197
:101D2000204670BD0020024010B50346002005E0AB
:101D300053F8204041F82040441CE0B29042F7DBC9
:101D400010BD000001460020034A106800F0380072
:101D50000843106070470000002002400248034919
:101D600048600348486070472301674500200240EF
:101D7000AB89EFCD70B504460425FFF781FF05461A
:101D800005E002F063FEFFF77BFF0546641E012DB0
:101D900001D1002CF5D104B90525284670BD0000FD
:101DA000F0B58DB006460F46142108A8FEF7D5FB06
:101DB0000025002420216846FEF7CFFB29488742F2
:101DC00002D000200DB0F0BD0F22314608A8FEF76A
:101DD0004DFB0F2108A8FFF7D9FC8DF82F00002537
:101DE0001CE008A8415D08AA681C105C01EB0020FB
:101DF00080B22DF814003DF814101B4A02EB440089
:101E000002F0FAF93DF81410174A403202EB440090
:101E100002F0F2F9601CC4B2A81CC5B20F2DE0DDBF
:101E2000072208A91048FFF77FFF0F2108A8FFF736
:101E3000ADFC9DF82F10884201D00020C2E7072298
:101E400008A909484030FFF76FFF0F2108A8FFF7E6
:101E50009DFC9DF82F10884201D00020B2E70120A0
:101E6000B0E70000AA9988EE00F0010808B501214A
:101E7000664800F0C3F9664800F0D0F8654800F005
:101E8000CDF8654800F0CAF803208DF802004FF441
:101E90000060ADF8000048208DF8030069465C48FA
:101EA00000F020F94FF48050ADF8000018208DF8B4
:101EB00003006946564800F015F94FF48050ADF81C
:101EC000000048208DF803006946524800F00AF9E6
:101ED0004FF40050ADF8000018208DF8030069465B
:101EE0004C4800F0FFF80720ADF8000048208DF8BE
:101EF00003006946464800F0F5F84FF4C060ADF8BD
:101F0000000010208DF803006946414800F0EAF80F
:101F10004FF480613E4800F0B2F94FF400713C4844
:101F200000F0ADF94FF44040ADF8000010208DF8FE
:101F300003006946374800F0D5F84FF400413548B2
:101F400000F09DF94FF48041324800F098F94FF4C9
:101F50000040ADF8000004208DF8030069462C48CD
:101F600000F0C0F81820ADF8000014208DF8030030
:101F70006946284800F0B6F81021264800F09AF982
:101F80000821244800F096F94FF48060ADF8000075
:101F900014208DF8030069461F4800F0A3F84FF4A1
:101FA00080611D4800F086F94FF40070ADF8000024
:101FB00014208DF803006946174800F093F84FF499
:101FC0000071154800F076F94FF4E070ADF80000AC
:101FD00018208DF8030069460E4800F083F84FF48E
:101FE0000060ADF8000004208DF8030069460A483F
:101FF00000F078F82020ADF8000004208DF80300F0
:102000006946044800F06EF808BD00000002300088
:1020100000080140000C01400010014010B50446CA
:102020002948844208D10121042001F013FA00213B
:10203000042001F00FFA46E02448844208D101212F
:10204000082001F007FA0021082001F003FA3AE025
:102050001F48844208D10121102001F0FBF9002122
:10206000102001F0F7F92EE01A48844208D101212E
:10207000202001F0EFF90021202001F0EBF922E00F
:102080001548844208D10121402001F0E3F90021E4
:10209000402001F0DFF916E01048844208D1012108
:1020A000802001F0D7F90021802001F0D3F90AE067
:1020B0000B48844207D10121801501F0CBF90021A2
:1020C000A01501F0C7F910BD00080140000C014047
:1020D000001001400014014000180140001C0140A4
:1020E000002001402DE9F041024600250026002095
:1020F00000230024002791F803C00CF00F0591F88D
:1021000003C00CF0100CBCF1000F03D091F802C01A
:102110004CEA050591F800C0BCF1000F31D01468FD
:1021200000202BE04FF0010C0CFA00F3B1F800C0D6
:102130000CEA03069E4220D183004FF00F0C0CFAEC
:1021400003F7BC4305FA03FC4CEA040491F803C00E
:10215000BCF1280F06D14FF0010C0CFA00FCC2F8BC
:1021600014C00AE091F803C0BCF1480F05D14FF04C
:10217000010C0CFA00FCC2F810C0401C0828D1D396
:102180001460B1F800C0BCF1FF0F34DD54680020CA
:102190002EE000F1080C4FF0010808FA0CF3B1F83A
:1021A00000C00CEA03069E4221D183004FF00F0CC1
:1021B0000CFA03F7BC4305FA03FC4CEA040491F85B
:1021C00003C0BCF1280F05D100F1080C08FA0CF887
:1021D000C2F8148091F803C0BCF1480F07D100F198
:1021E000080C4FF0010808FA0CF8C2F81080401CE7
:1021F0000828CED35460BDE8F0810000F0B50A464F
:102200000023002400210025174E7168C0F3034508
:1022100083B200F44016B6F5401F08D121F070617A
:10222000114E766826F070660F4F7E6012E000F463
:102230008016B6F5801F06D1032606FA05F4A143E1
:1022400041F0706106E0460D360103FA06F6B1432F
:1022500041F0706122B1460D360103FA06F63143B2
:10226000014E7160F0BD00000000014002460020F8
:1022700093680B400BB1012000E0002070474161E2
:102280007047000038B5044603208DF80200022094
:10229000ADF800001CB948208DF8030002E01020C2
:1022A0008DF8030069460248FFF71CFF38BD0000A7
:1022B000001001400161704700BFFEE710B506A0A5
:1022C000FDF7D8FF0AA0FDF7D5FF0FA0FDF7D2FF5D
:1022D00014A0FDF7CFFF10BD424D575F435F53651C
:1022E000726965733A2076302E320D0A00000000C4
:1022F0006D6F646966792062792020203A6B78617D
:102300006A643030310D0A00323031392F342F31C8
:10231000322032333A323920202020202020200D54
:102320000A0000002A2A2A2A2A2A2A2A2A2A2A2AAB
:102330002A2A2A2A2A2A2A2A2A2A2A2A2A2A2A2AFD
:102340002A2A2A2A2A2A2A2A2A2A2A2A2A2A2A2AED
:102350002A2A2A2A2A2A2A2A2A0D0A000021054A7C
:102360001154054A1154054A42F82010044A42F813
:1023700020107047240200201D02002014050020B8
:10238000300500202DE9F04780460D469146002497
:102390000026802760480078022804D0002202210D
:1023A0005E48FFF757F801205D4908704FF6FF704F
:1023B00000EA0515B9F1000F05D02226222259495D
:1023C0005948FEF798F8A81985B2002421E008EBD7
:1023D00024100078C4F34201C1F1070201219140A9
:1023E000084058B10020A1194F4A5054601C84B2D3
:1023F0000120A1195054601C84B20AE00120A119E7
:10240000494A5054601C84B20020A1195054601CE9
:1024100084B2AC42DBDB0120444908700121800713
:1024200001F027FD0121424801F023FD00214FF07A
:10243000804001F0C0FE3E482030008840F011008E
:102440003B492031088000BF4FF0804001F09FFDE4
:10245000B84203DA354800780128F5D007F180004A
:1024600087B23148007810B901202F4908703048F0
:10247000203000884FF6EE7108402D492031088049
:10248000012428E02848005D48B929482030008808
:102490004FF6EE7108402649203108800BE0601E9F
:1024A0002149085C38B922482030008840F01100EA
:1024B0001F492031088000BF4FF0804001F067FDC8
:1024C000B84203DA194800780128F5D007F18000F6
:1024D00087B2601C84B2AC42D4DB00201049087083
:1024E0001348203000884FF6EE7108401049203123
:1024F000088000214FF0804001F0BBFC00210C4817
:1025000001F0B7FC012202210448FEF7A3FF0020DE
:1025100006490870BDE8F0872C02002000640040E6
:102520002B02002064530008A00500201C0200209C
:10253000000800402DE9F04780460D4691460024F2
:102540000026802760480078022804D0002202215B
:102550005E48FEF77FFF01205D4908704FF6FF706F
:1025600000EA0515B9F1000F05D0222622225949AB
:102570005948FDF7C0FFA81985B2002421E008EBF7
:1025800024100078C4F34201C1F1070201219140F7
:10259000084058B10020A1194F4A5054601C84B221
:1025A0000120A1195054601C84B20AE00120A11935
:1025B000494A5054601C84B20020A1195054601C38
:1025C00084B2AC42DBDB0120444908700121800762
:1025D00001F04FFC0121424801F04BFC00214FF07B
:1025E000804001F0E8FD3E482030008840F00100C6
:1025F0003B492031088000BF4FF0804001F0C7FC0C
:10260000B84203DA354800780128F5D007F1800098
:1026100087B23148007810B901202F49087030483E
:10262000203000884FF6EE7108402D492031088097
:10263000012428E02848005D48B929482030008856
:102640004FF6EE7108402649203108800BE0601EED
:102650002149085C38B922482030008840F0010048
:102660001F492031088000BF4FF0804001F08FFCEF
:10267000B84203DA194800780128F5D007F1800044
:1026800087B2601C84B2AC42D4DB002010490870D1
:102690001348203000884FF6EE7108401049203171
:1026A000088000214FF0804001F0E3FB00210C483E
:1026B00001F0DFFB012202210448FEF7CBFE0020DF
:1026C00006490870BDE8F0872C0200200064004035
:1026D0002B02002064530008A00500201C020020EB
:1026E000000800402DE9F04780460D469146002441
:1026F0000026802760480078022804D000220221AA
:102700005E48FEF7A7FE01205D4908704FF6FF7096
:1027100000EA0515B9F1000F05D0222622225949F9
:102720005948FDF7E8FEA81985B2002421E008EB1E
:1027300024100078C4F34201C1F107020121914045
:10274000084058B10020A1194F4A5054601C84B26F
:102750000120A1195054601C84B20AE00120A11983
:10276000494A5054601C84B20020A1195054601C86
:1027700084B2AC42DBDB01204449087001218007B0
:1027800001F077FB0121424801F073FB00214FF07B
:10279000804001F010FD3E482030008840F01000DD
:1027A0003B492031088000BF4FF0804001F0EFFB33
:1027B000B84203DA354800780128F5D007F18000E7
:1027C00087B23148007810B901202F49087030488D
:1027D000203000884FF6EE7108402D4920310880E6
:1027E000012428E02848005D48B9294820300088A5
:1027F0004FF6EE7108402649203108800BE0601E3C
:102800002149085C38B922482030008840F0100087
:102810001F492031088000BF4FF0804001F0B7FB16
:10282000B84203DA194800780128F5D007F1800092
:1028300087B2601C84B2AC42D4DB0020104908701F
:102840001348203000884FF6EE71084010492031BF
:10285000088000214FF0804001F00BFB00210C4864
:1028600001F007FB012202210448FEF7F3FD0020DE
:1028700006490870BDE8F0872C0200200064004083
:102880002B02002064530008A00500201C02002039
:102890000008004010B508A0FDF7ECFC0AA0FDF709
:1028A000E9FC0DA0FDF7E6FC0FA0FDF7E3FC13A08B
:1028B000FDF7E0FC10BD0000B2E9BFB4B0E6B1BE68
:1028C0003A68656C700D0A00B2D9D7F7D6B8D2FD58
:1028D0003A6C6973740D0A00BDF8C8EBC9FDBCB64B
:1028E0003A6961700D0A0000B4F2D3A1B5CDC6B546
:1028F0003A64656275670D0A000000002A2A2A2AD8
:102900002A2A2A2A2A2A2A2A2A2A2A2A2A2A2A2A27
:102910002A2A2A2A2A2A2A2A2A2A2A2A2A2A2A2A17
:102920002A2A2A2A2A2A2A2A2A2A2A2A2A2A2A2A07
:102930002A0D0A0000BFFEE7704708B54FF4A060FB
:1029400000F074F803208DF8000000208DF80100DD
:102950008DF8020001208DF80300684600F02EF883
:102960001C208DF8000000208DF8010001208DF85A
:1029700002008DF80300684600F020F814208DF85E
:10298000000000208DF8010002208DF802000120D7
:102990008DF80300684600F011F840208DF8000023
:1029A00001208DF8010002208DF8020001208DF831
:1029B0000300684600F002F808BD000070B5002171
:1029C00000230F22C47804B3154C246804F4E06497
:1029D000C4F5E064210AC1F10403CA40447804FA52
:1029E00003F184781440214309010E4C0678A15567
:1029F000047804F01F050124AC4005786D11AD008A
:102A000005F1E025C5F8004109E0047804F01F0550
:102A10000124AC40044D0678761145F8264070BD7F
:102A20000CED00E000E400E080E100E00249014339
:102A3000024A1160704700000000FA050CED00E04A
:102A40000648006800F4E06005490843001D03499A
:102A50000860BFF34F8F00BFFEE700000CED00E001
:102A60000000FA0510B56420FFF752F80649074840
:102A7000FEF7E8FA002006490870064908704FF48E
:102A80001670FFF745F810BD4C03002000680040A9
:102A9000180400205202002010B54FF4007146487F
:102AA000FFF7EDFB4548007830B14548007818B98C
:102AB00001204449087010BD43494448FEF7CCFA50
:102AC0001420FFF725F840494048FEF7C5FA3220A8
:102AD000FFF71EF83E493D48FEF7BEFA0A20FFF711
:102AE00017F81420FFF714F83A493848FEF7B4FAFB
:102AF00039493648FEF7B0FA3C20FFF709F8374964
:102B00003248FEF7A9FA3C20FFF702F833492F4874
:102B1000FEF7A2FA01202A4908701420FEF7F8FFF8
:102B20002F492A48FEF798FA2E48007830B92E48E7
:102B3000007818B93221042001F0D4F84FF4007164
:102B40001D48FFF7B7FBC820FEF7E2FF1B480078DF
:102B500030B301201B49087081022448FFF7AAFB0B
:102B60004FF47A70FEF7D4FF012001F0F9FD4FF425
:102B7000FA70FEF7CDFF4FF480611C48FFF77FFB32
:102B80001420FEF7C5FF1A48007848B919480078A4
:102B900030B91948007820B118490C48FEF75CFAA2
:102BA00003E017490948FEF757FA4FF482710620EF
:102BB00001F098F800BF7EE7001001403C020020C1
:102BC000690200202C020020245100080068004007
:102BD000A84F00088450000898500008485000088A
:102BE000944F0008500200205102002000080140CC
:102BF000450200203D0200204F020020F84F00084F
:102C00000C50000810B54FF400713948FFF737FB3E
:102C10000120FFF7A3FB0620FFF7A0FB0420FFF72E
:102C20009DFB002033490870334908703349087010
:102C30003349087082203349C87200203249087035
:102C400030493248FEF7FEF931493048FEF704FAC0
:102C50003C20FEF75DFF00202E4908702E492F48CA
:102C6000FEF7FAF93C20FEF753FF3220FEF750FF43
:102C70002B492A48FEF7F0F94FF44870FEF748FF59
:102C800028480078012807D123492448FEF7E4F9B1
:102C900025492248FEF7E0F93220FEF739FF2049A6
:102CA0001E48FEF7D9F9C820FEF732FF4FF4007135
:102CB0000F48FFF7FFFA1D480078B8B904201C49F7
:102CC0000870C820FEF724FF032001F049FD1421FD
:102CD000002001F007F83220FEF71AFF15490F48CF
:102CE000FEF7BAF914490D48FEF7B6F910BD000019
:102CF000001001404C0200204B0200205B0200202B
:102D000055020020EC03002069020020006400400E
:102D1000100300204A020020C05000080068004054
:102D20005C5000084D020020345000083C02002096
:102D30002C020020D4500008380300205D480068B1
:102D40000F2601215C4801F0ECFA4FF480615B48EA
:102D5000FFF795FA08215A48FFF791FA4FF40071EE
:102D60005648FFF78CFA002400BF01E0FEF7EEFEA4
:102D70002021514801F002FB0028F7D0402C00D15F
:102D800000244D4801F0A6FB4E4908554E480078F6
:102D900020B10846015D4DA0FDF76CFA102C52DD04
:102DA0004848005DA11B474A515C88427FD1601EA4
:102DB0001146095CA01B401E105C814277D1A01E09
:102DC0001146095CA01B801E105C81426FD13E48F9
:102DD0000078D0B13FA0FDF74DFA002510E0B01CFF
:102DE000201A28443749085C3D4948553DA0FDF765
:102DF00041FA3B48415D35A0FDF73CFA681CC5B27D
:102E0000B542ECDB38A0FDF735FA002508E0B01C30
:102E1000201A28442B49085C31494855681CC5B222
:102E2000B542F4DB32492E48FEF7BAFF8046B8F1CE
:102E3000010F04D02E492A48FEF7B2FF8046B8F1B0
:102E4000010F01D0002432E04FF400711B48FFF75E
:102E500031FA08211A48FFF72DFA002704E0642010
:102E6000FEF756FE781CC7B2112FF8DB2149224825
:102E7000FEF7F2F86420FEF74BFE20491E48FEF7ED
:102E8000EBF86420FEF744FE1A491B48FEF7E4F80D
:102E90006420FEF73DFE19491748FEF7DDF80420CF
:102EA00001F05EFC6420FEF733FEFFF7C9FD601CF5
:102EB000C4B25AE718020020004C00400010014044
:102EC000000C01406005002000050020253032582C
:102ED00020000000B5CDC6B5CAFDBEDD0000000073
:102EE000AA02002030780000BDE1CAF8000000000E
:102EF000AA9988EE88510008006800409C5100089B
:102F000070B5002600240025A8480078012800D1CB
:102F100070BDA7480078012800D1F9E7A5480078DE
:102F2000012800D1F4E7A4480078012800D1EFE798
:102F3000A248007800B1EBE7A1480078012800D151
:102F4000E6E7A0480078012800D1E1E79E48006844
:102F50009E49884200D9DBE74FF400719C48FFF797
:102F60008EF99C48007804282FD19B4800780128CE
:102F700004D19948007899490870C9E797480078C2
:102F800095490978884220D09548007802280CD1CC
:102F9000FF2094490870FFF765FD8F4800788F493E
:102FA000087001208E490870B2E78D480078022829
:102FB00005DA8B480078401C8949087005E000203C
:102FC00089490870012086490870002085490870E9
:102FD0008648007800284AD0012001F08BFE01F0DD
:102FE000E9FB01220F218248FFF7CCF90220FEF70E
:102FF0008FFD80480068401C7E49086014217E488F
:1030000001F0CAFA044601F033FC01F01DFC2EB1B8
:103010004FF400716E48FFF74DF979E73CB101209C
:103020007049087041026A48FFF744F970E70020D0
:1030300001F060FE01F0BEFB01220F216C48FFF79A
:10304000A1F90220FEF764FD14216B4801F0A4FAF7
:10305000054601F00DFC01F0F7FB002D7DD00120AD
:103060006049087041025A48FFF724F950E70120EF
:1030700001F040FE01220F215D48FFF75BFA0120BD
:10308000FEF746FD5B480068401C5A490860142161
:10309000594801F081FA044664B101205149087091
:1030A00001F0E6FB01F0D0FB4FF400714848FFF758
:1030B00001F92DE751480078E8B10220FEF728FD1C
:1030C00001220F214A48FFF70DFB0120FEF720FDEA
:1030D0001421494801F060FA044664B101204149D5
:1030E000087001F0C5FB01F0AFFB4FF400713848E8
:1030F000FFF7E0F80CE70220FEF70AFD002001F0E0
:10310000F9FD01220F213A48FFF714FA0120FEF7DA
:10311000FFFC1421384801F03FFA054665B1012053
:103120003049087001F0A4FB01F08EFB4FF40071F0
:103130002748FFF7BFF8EBE63048007868B1022077
:10314000FEF7E6FC01220F212948FFF7CBFA012008
:10315000FEF7DEFC1421284800E010E001F01CFA24
:10316000054665B101201F49087001F081FB01F09F
:103170006BFB4FF400711648FFF79CF8C8E6154842
:103180000078032804D11E48007808B1FFF76AFCD4
:1031900001F06EFB01F058FB0020124908704FF45B
:1031A00000710B48FFF786F800BFB1E62D02002042
:1031B000410200204202002044020020430200207D
:1031C0006D0200204E02002018020020008D270012
:1031D000001001402C0200203D0200205E02002071
:1031E00020040020190400206B020020540200205B
:1031F000AA0200201C0400206005002053020020C9
:103200005502002010B50446072C0FD2DFE804F069
:10321000040F1E2027637C0047480068474909685F
:1032200008444549086001204549087081E0454946
:103230004548FDF711FF0520FEF76AFC4349424867
:10324000FDF70AFF0120FFF789F872E0FFF7F8FBAE
:1032500000203F4908700320FFF780F869E03D48EF
:10326000007870BB3C48007858B93C48007840B9B9
:103270003B48007828B93B48007810B93A480078B4
:1032800078B130493048FDF7E7FE0220FEF740FCF8
:103290002E492D48FDF7E0FE34492B48FDF7DCFEB2
:1032A00004E000F07BF80420FFF758F801202949DA
:1032B0000870214800692149096908441E490861CC
:1032C00008E0FFE700202349087000F067F80420B9
:1032D000FFF744F82DE026480078052810DA164854
:1032E000406916494969084413494861214916480B
:1032F000FDF7B2FE1E480078401C1D49087002E030
:103300000520FFF72BF814E01B48007820B91B4874
:10331000007808B900F042F80120194908703420FB
:103320001849C8721848FDF797FE0620FFF716F8EF
:1033300000BF00BF10BD00003005002014050020B4
:1033400010020020845000080068004098500008D7
:10335000530200201404002037020020380200200D
:10336000390200203A0200203B020020A84F00084A
:103370006A020020E44F00085002002051020020A1
:103380004C020020EC030020006400400149086268
:103390007047000000000E427047000010B5822008
:1033A0000F49C8720F48FDF757FE0120FEF7B0FB2A
:1033B0000D490E48FDF750FE82200949C8720948A0
:1033C000FDF74AFE0120FEF7A3FB09490748FDF778
:1033D00043FE82200249C8720248FDF73DFE10BD3F
:1033E000EC03002000640040BC4F0008006800406F
:1033F000D04F000829B1064AD2690243044BDA6172
:1034000004E0034AD2698243014BDA61704700004D
:103410000010024029B1064A12690243044B1A61A6
:1034200004E0034A12698243014B1A6170470000AD
:103430000010024029B1064A92690243044B9A6186
:1034400004E0034A92698243014B9A61704700008D
:103450000010024029B1064AD2680243044BDA60E8
:1034600004E0034AD2688243014BDA6070470000EF
:1034700000100240014908607047000040044242C9
:103480000348406A40F0807001494862704700007C
:103490000010024010B500F053F84FF4803000F0F7
:1034A00075F900F0D7F90446012C1DD11020FEF764
:1034B0000BFC0220FEF746FC002000F05BF9002028
:1034C00000F0A2F9002000F093F900BF312000F0D5
:1034D0002BF90028FAD0012000F0B0F900BF00F06D
:1034E00041F90428FBD11FE0012000F075F91020FC
:1034F000FEF7EAFB0220FEF725FC002000F03AF977
:10350000002000F081F9002000F072F900BF2120B6
:1035100000F00AF90028FAD0002000F08FF900BF6F
:1035200000F020F90028FBD101211D20FFF782FFC8
:1035300001210248FFF75EFF10BD000000000818DF
:103540001348006840F001001149086008464068CF
:10355000104908400E494860084600680E49084076
:103560000B4908600846006820F48020086008467F
:10357000406820F4FE0048600846006820F0A05033
:1035800008604FF47F0088600020C8627047000028
:10359000001002400000FFF0FFFFF6FE2DE9F041B1
:1035A00000210022002500230026002400278C464D
:1035B000DFF86081D8F8048008F00C0121B10429FB
:1035C00007D0082959D109E0DFF84C81C0F8008004
:1035D00058E0DFF84481C0F8008053E0DFF8348120
:1035E000D8F8048008F47012DFF82881D8F8048035
:1035F00008F48035920C0D2A01D0921C00E00622BE
:1036000035B9DFF8188102FB08F8C0F8008033E014
:10361000DFF80081D8F82C8008F48036DFF8F480D9
:10362000D8F82C8008F00F0808F1010446B9DFF83B
:10363000E880B8FBF4F808FB02F8C0F800801BE053
:10364000DFF8D080D8F82C80C8F3031808F1010700
:10365000DFF8C080D8F82C80C8F3032808F1020CEA
:10366000DFF8B480B8FBF7F808FB0CF8B8FBF4F807
:1036700008FB02F8C0F8008004E0DFF89C80C0F886
:10368000008000BF00BFDFF88C80D8F8048008F00D
:10369000F0010909DFF8888018F80130D0F80080BF
:1036A00028FA03F8C0F80480DFF86880D8F80480AE
:1036B00008F4E061090ADFF8688018F80130D0F8F2
:1036C000048028FA03F8C0F80880DFF84880D8F8AA
:1036D000048008F46051C90ADFF8448018F801300A
:1036E000D0F8048028FA03F8C0F80C80DFF82480B2
:1036F000D8F8048008F44041890BDFF8288018F8D6
:103700000130D0F80C80B8FBF3F8C0F81080BDE8A9
:10371000F08100000010024000127A0000093D0014
:10372000000000201000002010B5014600220023F8
:1037300000204A11012A02D1094C236806E0022A1E
:1037400002D1074C236A01E0054C636A01F01F02B5
:10375000012494401C400CB1012000E0002010BD69
:10376000001002400248406800F00C007047000062
:103770000010024001460020034A506820F0F0008B
:10378000084350607047000000100240114909686A
:1037900021F480310F4A11601146096821F480211B
:1037A0001160B0F5803F03D0B0F5802F0ED106E058
:1037B0000849096841F48031064A116007E005496B
:1037C000096841F4A021034A116000E000BF00BF76
:1037D0007047000000100240014908607047000077
:1037E00000004242014908607047000080044242E4
:1037F00001460020034A506820F4E060084350600E
:10380000704700000010024001460020034A506843
:1038100020F4605040EAC100506070470010024040
:1038200001490860704700003C0442420249096AAD
:103830000143014A11627047001002400146002016
:10384000034A506820F003000843506070470000AE
:103850000010024038B5002000900024002500BF71
:103860003120FFF761FF05460098401C009000984A
:10387000B0F5A06F01D0002DF2D03120FFF754FF3A
:1038800008B1012400E00024204638BD024909881F
:103890008143014A118070470428004010B501207F
:1038A000FFF774FDFCF79EFF0120FFF79BFF00BFB1
:1038B0006120FFF739FF0028FAD04FF40070FFF7BE
:1038C000B5FF0120FFF7ACFF00F0D2F84FF47A60AB
:1038D00000F0B4F800F0C2F8002000F0A1F800F009
:1038E000BDF80121084600F08BF800F0B7F810BDD4
:1038F0000348008840F0100001490880704700002C
:1039000004280040034800884FF6EF710840014941
:103910000880704704280040002103480188001FE8
:10392000008841EA004070471C2800400146002002
:10393000064A12880A40D0B2044A121F12880A406E
:1039400012B108B1012000E00020704704280040B7
:1039500070B526480078012807D1FFF797FF244863
:103960000068401C2249086070BD0120FFF7DEFF9F
:10397000002838D0002500F071F80120FFF786FFFD
:1039800000F06CF8FFF7C8FF1949086008460568A1
:103990001848006888B100240DE01648005D012831
:1039A00007D1154850F82400A84202D2012013493B
:1039B0000855601CC4B2042CEFDB0E48406888B187
:1039C00004240DE00B48005D012807D10A4850F897
:1039D0002400A84202D2012008490855601CC4B244
:1039E000072CEFDB00BF00BFBEE700002B0200206A
:1039F000180200201D0200203005002024020020B3
:103A000029B1064A12880243044B1A8004E0034A93
:103A100012888243014B1A80704700000028004042
:103A200000B50246FFF764FF100C03490880091D2A
:103A30000A80FFF767FF00BD1828004000B5024666
:103A4000FFF756FFC2F3034003490880091D0A80AF
:103A5000FFF758FF00BD00000828004000BF0348E2
:103A6000008800F020000028F9D0704704280040AA
:103A7000074800884FF6F77108400549088000BFE5
:103A80000348008800F008000028F9D070470000C3
:103A90000428004030B503460C461546002207E0D6
:103AA000184600F008F824F812009B1C501C82B243
:103AB000AA42F5DB30BD0146088870472DE9F05F6A
:103AC00080468A461746B8F1006F02D333488045D6
:103AD00001D3BDE8F09FFEF741F9A8F1006B4FEA72
:103AE0009B25CBF34809C9F50074A74200DC3C468E
:103AF0004DE04FF0006101EB85208A142849FFF763
:103B0000C9FF00260BE009EB0600254931F810003B
:103B10004FF6FF71884200D003E0701C86B2A642C7
:103B2000F1DB00BFA6421BDA4FF0006101EB8520FC
:103B3000FEF77EF8002608E03AF8160006EB0901C9
:103B4000174A22F81100701C86B2A642F4DB4FF02F
:103B5000006101EB85208A14114900F023F804E08C
:103B600022465146404600F01DF8A74200D10FE022
:103B70006D1C4FF000090AEB440AA044381B87B2C1
:103B8000B7F5007F02DD4FF4007400E03C46B0E77B
:103B900000BFFEF78FF800BF9BE70000000004089D
:103BA0004A0700202DE9F04105460E46174600243D
:103BB00007E036F814102846FEF794F8AD1C601C98
:103BC00084B2BC42F5DBBDE8F081704710B500F06F
:103BD00001F810BD0CB50020019000903E4800682F
:103BE00040F480303C49086000BF3B48006800F466
:103BF000003000900198401C0190009818B901987D
:103C0000B0F5A06FF1D13448006800F4003010B175
:103C10000120009001E0002000900098012857D179
:103C20002E48006840F010002C49086008460068E3
:103C300020F0030008600846006840F002000860B9
:103C4000254840682449486008464068486008465E
:103C5000406840F4806048600846C06A20490840D7
:103C60001D49C8620846006840F08060086000BFD7
:103C70001948006800F000600028F9D01648406834
:103C800020F47C10144948600846406840F4E8106D
:103C900048600846006840F08070086000BF0E4829
:103CA000006800F000700028F9D00B48406820F050
:103CB0000300094948600846406840F00200486037
:103CC00000BF0548406800F00C000828F9D101E069
:103CD00000BFFEE70CBD00000010024000200240C3
:103CE00000F0FEFF0022074B1A54074A42F820104A
:103CF000064A12680A44064B43F820200122054B6D
:103D00001A547047240200201405002018020020D5
:103D1000300500201D0200200146002001E0421C69
:103D2000D0B20A5C002AFAD17047042808D14FF0BB
:103D3000E021096941F004014FF0E022116107E040
:103D40004FF0E021096921F004014FF0E0221161F8
:103D50007047000070B50420FFF7E7FF4FF4FA71D9
:103D6000B1F1807F00D31DE021F07F40401E4FF075
:103D7000E022506150170F22002807DA13071D0EAA
:103D8000094B00F00F04241F1D5503E013071C0E00
:103D9000064B1C5400BF00204FF0E022906107202A
:103DA000106100BF70BD000018ED00E000E400E00D
:103DB0000448006820B103480068401E01490860BB
:103DC000704700001402002010B51448006840F04D
:103DD00001001249086008464068114908400F492F
:103DE0004860084600680F4908400C4908600846CA
:103DF000006820F4802008600846406820F4FE0037
:103E000048600846006820F0A05008604FF47F002A
:103E100088600020C862FFF7D9FE10BD0010024084
:103E20000000FFF0FFFFF6FE10B50121880700F04B
:103E3000B1F858B10121880700F018F800214FF0BF
:103E4000804000F016F800200149087010BD000005
:103E50001C02002021B1028842F08002028004E0AE
:103E6000028840F27F331A4002807047CA430282C0
:103E7000704721B1028842F00102028004E002880A
:103E800040F2FE331A4002807047000000B587B050
:103E900001210520FFF7AEFA3F20ADF81400002005
:103EA000ADF81000ADF81600ADF812008DF818004E
:103EB00004A92E4800F082F96020ADF8000001202E
:103EC000ADF802000020ADF804002020ADF8060097
:103ED0000220ADF808000820ADF80A000020ADF877
:103EE0000C00ADF80E006946204800F06DF808217E
:103EF0001E4800F0A5F869461C4800F0ABF8082100
:103F00001A4800F0F5F86946184800F0FFF8082153
:103F1000164800F047F901211448FFF79BFF0121E3
:103F2000124800F025F800211048FFF7A2FF4FF6D5
:103F3000FF70ADF814000720ADF810000020ADF8B8
:103F40001600ADF812008DF8180004A94FF080405B
:103F500000F034F901218807FFF788FF012211469C
:103F6000900700F028F807B000BD000000080040EE
:103F700031B1B0F8442042F40042A0F8442005E0FA
:103F8000B0F84420C2F30E02A0F844207047014666
:103F9000888C704730B50246002000230024158A23
:103FA00005EA0103958905EA010413B10CB101206A
:103FB00000E0002030BD1AB183890B43838102E009
:103FC00083898B438381704770B5002400220023CE
:103FD000058C4FF6FE7635400584028C8388048B71
:103FE0004FF68C752C400D882C43751E2A400D8988
:103FF0002A434D882A43104DA84202D00F4DA842B3
:1040000013D14FF6F7752A404D892A434FF6FB75B9
:104010002A408D882A4347F6FF652B4047F6FF5517
:104020002B408D892B43CD892B4383800483CD88FE
:104030008586028470BD0000002C014000340140E0
:104040000A460021018B4FF6F77319401143018393
:104050007047000070B5002400220023058C4FF645
:10406000EF7635400584028C8388048B48F6FF4543
:104070002C400D884FF6FF7606EA05252C434FF6B7
:10408000DF752A400D8906EA05152A434D8806EAA0
:1040900005152A43144DA84202D0144DA8421DD143
:1040A0004FF67F752A404D894FF6FF7606EA0515D3
:1040B0002A434FF6BF752A408D8806EA05152A4324
:1040C00047F6FF352B4047F2FF752B408D8906EAF6
:1040D00085052B43CD8906EA85052B438380048320
:1040E000CD880587028470BD002C0140003401405A
:1040F0000A460021018B4FF2FF7319404FF6FF7300
:1041000003EA0223194301837047000070B50024BD
:1041100000220023058C4FF6FF6635400584028C93
:104120008388848B4FF68C752C400D882C434FF67A
:10413000FF552A400D894FF6FF7606EA05252A43EA
:104140004D8806EA05252A43144DA84202D0144D95
:10415000A8421DD14FF2FF752A404D894FF6FF76D8
:1041600006EA05252A434FF6FF352A408D8806EAE0
:1041700005252A4346F6FF752B4045F6FF752B4073
:104180008D8906EA05152B43CD8906EA05152B43D3
:1041900083808483CD888587028470BD002C014094
:1041A000003401400A460021818B4FF6F773194015
:1041B000114381837047818470470000028802F0B8
:1041C0008F020280CA884B881A4303881A430280F0
:1041D0008A8882850A880285054A904202D0054A6B
:1041E000904201D10A7A0286012282827047000041
:1041F000002C01400034014013B50446012201A9FE
:104200002046FFF75BFC1CBD10B586B004460121BB
:104210000520FFF70FF901214804FFF7EBF8042010
:10422000ADF8040018208DF8070003208DF8060073
:1042300001A91E48FDF756FF0820ADF80400042030
:104240008DF8070001A91948FDF74CFF02940020E2
:10425000ADF80C00ADF80E00ADF81000ADF814008C
:104260000C20ADF8120002A9114800F0E3F8012279
:1042700040F225510E4800F0B8F801210C4800F03A
:1042800050F84FF4E060FEF7D1FB26208DF80000D7
:1042900000208DF8010003208DF8020001208DF828
:1042A00003006846FEF78AFB06B010BD0008014017
:1042B0000044004010B5002440F225510E4800F0A3
:1042C0006AF8012817D10C4800F004F9C4B20B4871
:1042D0000B49097844540A480078401C0849087082
:1042E00008460078FA2801DB0020087040F22551CA
:1042F000014800F007F810BD00440040440C0020C5
:104300000805002010B50022002340F66A14A142DF
:1043100000D100BF0A1201249440A3B2DC43048000
:1043200010BD21B1828942F40052828104E0828969
:104330004DF6FF731A408281704700001FB54FF49D
:10434000165000900020ADF80400ADF80600ADF85E
:104350000800ADF80C000420ADF80A0069460648D4
:1043600000F068F800210448FFF7DBFF4FF4E1306C
:10437000FFF74AFF1FBD0000004C0040024600202E
:10438000B1F5007F00D100BF13880B400BB10120B5
:1043900000E00020704770B502460024002300258D
:1043A000002040F66A16B14200D100BFC1F34215A9
:1043B00001F01F03012606FA03F3012D02D19689AD
:1043C000334006E0022D02D1168A334001E0968A7E
:1043D00033400C12012606FA04F41688344013B157
:1043E0000CB1012000E0002070BDF0B503460024B0
:1043F00000260025002040F66A17B94200D100BF10
:104400001846C1F3421401F01F06012707FA06F50A
:10441000012C01D10C3004E0022C01D1103000E05D
:1044200014301AB107682F43076002E00768AF43F2
:104430000760F0BD2DE9F04786B005460E46002422
:10444000A24600BF00BF0027B08900B100BF2F46C1
:104450002C8A4CF6FF700440F08804432C82AC890F
:104460004EF6F3100440B08831890843718908433F
:104470000443AC81AC8A4FF6FF400440B08904434A
:10448000AC8201A8FFF78AF81148874202D1DDF813
:1044900010A001E0DDF80CA00AEBCA0000EB0A1046
:1044A00031688900B0FBF1F86420B8FBF0F004013A
:1044B0002009642101FB1089322000EB0910B0FBB8
:1044C000F1F000F00F0004432C8106B0BDE8F08746
:1044D0000038014001468888C0F308007047C1F3E6
:1044E000080282807047000010B500202149087042
:1044F000214800682149086021492248FCF7A2FDB3
:104500004FF4FA60FDF704FB00201F4908700846CD
:10451000007830B91D480078012802D103201C49D9
:10452000087014210020FFF7DDFB7B20FFF7FCF86B
:10453000FEF7A6FF012000F0DDFB00F03BF90128AB
:1045400006D102200E49C8720E48FCF77BFD0AE036
:104550004FF480610F48FDF7ADFE4FF47A70FDF720
:10456000D7FAFEF76DFA40F6B8310320FFF7BAFB31
:1045700010BD000010020020F0F7FF1F57020020BE
:1045800010030020006400402D0200203C020020A7
:104590002C020020001001402DE9F047ADF5167DFA
:1045A00082468846002408EB4800C0EBC8104FF64E
:1045B000FF71A1EBC00086B2B14600274FF416711F
:1045C0006846FBF7CAFF0025012055490870554889
:1045D0000078022809D0002202215348FCF73AFF54
:1045E000002202215148FCF735FF01205049087094
:1045F00001218007FFF73DFC31464FF08040FFF777
:10460000DAFD4C480078012829D126E000BF20219E
:104610004948FDF72BFE18B9454800780128F6D027
:1046200000BF20214448FDF721FE012803D1404866
:1046300000780128F5D04FF08040FFF7A8FC8146B4
:10464000A9EB060080B22DF817004E46781CC7B2C1
:104650003748007808B9002400E0D7E700BF0025FC
:104660003FE064B900BF3DF815000222642100F06C
:1046700067F810B1601CC4B231E000242FE0022CB6
:1046800001D0052C0CD13DF815000222342100F098
:1046900057F8012802D1601CC4B220E00024E2E7F0
:1046A000012C0CD13DF815000222642100F048F8DD
:1046B000012802D1601CC4B211E000240FE0032CD9
:1046C00001D0042C0BD13DF8150002224D2100F041
:1046D00037F8012802D1601CC4B200E00024681C35
:1046E000C5B2BD42BDDB062C00D0002400200C4921
:1046F000087000214FF08040FFF7BBFB00200C4901
:104700000870012202210848FCF7A4FE01220221C0
:104710000648FCF79FFE20460DF5167DBDE8F087A4
:104720002B0200202C0200200064004000680040A2
:104730001C0200202F020020000C014000BFFEE7F9
:1047400010B50346002441FA02F40819984202DB2E
:10475000081B984201DD002010BD0120FCE700008D
:1047600070B50446650129120548417385730549F2
:104770000548FCF771FC02490348FCF763FC70BD77
:1047800024030020705000080068004005E000216C
:1047900000E0491C0429FCD3401E0028F7D17047D3
:1047A00030380A2801D201207047002070470146A6
:1047B00000BF704770B5002020490870204908707C
:1047C00020480178002000F0E7FA00F05BFA46F29A
:1047D000040000F03BFB00240CE03220FFF7D6FF82
:1047E000612000F0CBF800F00F05032D00D103E0AD
:1047F000601CC4B2322CF0DB00BF322C01DB002085
:1048000070BD46F2080000F021FB00240CE03220CD
:10481000FFF7BCFF612000F0B1F800F00F05052D97
:1048200000D103E0601CC4B2322CF0DB00BF322C9C
:1048300001DB0020E4E70120E2E70000190000208E
:10484000180000201500002010B546F2100000F0FE
:10485000FDFA6420FFF79AFF612000F08FF800F066
:104860000F04012C01D1012010BD0020FCE7000045
:1048700070B500200F4908700F49087046F2020019
:1048800000F0E4FA00240CE03220FFF77FFF612003
:1048900000F074F800F00F05022D00D103E0601C59
:1048A000C4B2322CF0DB00BF322C01DB002070BD23
:1048B0000120FCE719000020180000202DE9F0413C
:1048C0000025002700266D2000F058F8044604F06B
:1048D000800008B145F0200504F0100018B145F043
:1048E000100546F0100604F0080018B145F0080560
:1048F00046F0080604F0040018B145F0040546F03F
:10490000040604F0020018B145F0020546F0020664
:1049100004F0010018B145F0010546F0010604F06D
:10492000400008B145F0010504F0200008B145F051
:10493000010505F5D64000F089FA6A2000F01EF85E
:10494000044604F0080018B147F0040746F02006BA
:1049500004F0200018B147F0020746F0800604F08A
:10496000100018B147F0010746F0400607F5D440A3
:1049700000F06CFA3046BDE8F081000070B50446E6
:1049800044F08000012100F077FA00F011F80546AC
:104990000120FDF777FC02210448FDF78BFC012183
:1049A0000248FDF787FC284670BD0000001001405A
:1049B00070B5002404211B48FDF761FC0020FDF7C1
:1049C00061FC01211748FDF75AFC0220FFF7DEFECB
:1049D0000220FFF7DBFE08251CE004211148FDF74B
:1049E00069FC6006040E0220FFF7D0FE02210D488C
:1049F000FDF73CFC00F0010010B144F0010400E0C0
:104A000000BF04210748FDF73AFC0220FFF7BEFE75
:104A1000681EC5B2002DE0D104210248FDF72FFC2D
:104A2000204670BD0010014010B503A0FBF722FC2A
:104A300001200549087010BD44656275675F666CAA
:104A400061670D0A000000000005002008B5002085
:104A50000090FF20009002E00098401E0090009817
:104A60000028F9D108BD000000BF054A128802F0F5
:104A70004002002AF9D0C2B2014B1B1D1A807047B8
:104A800000440040002202211648FCF7E3FC00220B
:104A900002211548FCF7DEFC00214FF08040FFF7B3
:104AA000E8F945F255511148FFF7A6FB3C20FDF708
:104AB0002FF80E48FEF7FFFF45F25551884202D00D
:104AC0000A48FFF799FB00BF0948006800F4E0605E
:104AD00008490843001D06490860BFF34F8F00BF17
:104AE00000BFFEE70064004000680040FC3F000893
:104AF0000CED00E00000FA05FEF7CCFCFDF7B6F97E
:104B0000FEF7CCFEFFF726F9FFF7C0F9FCF7B4FA81
:104B1000FFF714FCFDF711FFFFF7E6FC1BA0FBF706
:104B2000A9FB31E01B48007805281DD2DFE800F022
:104B300003040A1016001BE0002016490870FEF757
:104B4000DFF915E0002013490870FEF75BF80FE06D
:104B5000002010490870FDF79FFF09E000200D4973
:104B60000870FEF7EBF803E000200A49087000BF68
:104B700000BFFCF71DFEFCF731FFFCF7E7FF05481F
:104B8000007808B9FCF716FFCCE7000072756E20BC
:104B9000617070001002002010B5174800780D28D1
:104BA00003D101201549087024E01448007898B119
:104BB000114800780A280BD1114800781149087073
:104BC000FBF7B0FD00200E4908700C49087011E099
:104BD00000200A4908700DE0074800780A49084A91
:104BE0001278885400200549087005480078401C58
:104BF0000349087010BD0000090500200A050020C7
:104C00000B050020250400203E0D002010B561207A
:104C1000FFF7B4FE044644F0100424F0200404F529
:104C2000C24000F013F90D20FFF7A8FE044644F03F
:104C3000E00404F5506000F009F9FFF73FFE0020A2
:104C40000449087004490870044908600449087060
:104C500010BD00001E0000201F00002020000020CA
:104C60002400002070B506460D464DB1002405E035
:104C700036F8140000F0EAF8601CC4B2AC42F7DB6E
:104C800070BD000010B56920FFF778FE044624F0DF
:104C90000504074800781F2802DD44F0020401E003
:104CA00024F0020404F5D24000F0D0F810BD00005A
:104CB0001500002010B5044604F5CA4000F0C6F8FF
:104CC00010BD000008B500F0A1F84FF40070ADF879
:104CD000000004208DF8030003208DF802006946CF
:104CE0000348FDF7FFF900F087F8FFF7C1FD08BDA5
:104CF000000C014010B50446002202211D48FCF7BB
:104D0000A9FB002202211C48FCF7A4FBFFF7DAFFF5
:104D10000C211A48FFF7A6FF0C211948FFF7A2FF44
:104D200024B108211748FFF79DFF03E0082116482A
:104D3000FFF798FF18211548FFF794FF1D2114482D
:104D4000FFF790FF0B211348FFF78CFFFFF75EFF83
:104D5000FFF77AFD3020FFF7ADFFFFF72BFD0122B3
:104D600002210448FCF776FB012202210248FCF7ED
:104D700071FB10BD00640040006800403C01002051
:104D800054010020FC0100206C0100207C01002067
:104D9000AC010020E60100202DE9F04107460D4658
:104DA000FFF766FD4520FFF7E9FD044604F08F0498
:104DB00024F001048DB13FB10E48007810B1681E97
:104DC000C6B203E02E4601E0681EC6B2094800786C
:104DD00000B104E044F0010401E0BDE8F08104F515
:104DE0008A4000F033F806F58C4000F02FF800BF41
:104DF000F3E700001400002010B547F6FF7000F044
:104E000025F83220FCF784FE10BD000008B5032011
:104E10008DF802000720ADF8000010208DF8030087
:104E200069460948FDF75EF90820ADF8000010203A
:104E30008DF8030069460448FDF754F9042102483F
:104E4000FDF71DFA08BD00000010014010B5044632
:104E50000021C4F3062000F00FF8E0B2002100F0BA
:104E60000BF80620FFF792FC01210248FDF722FA19
:104E700010BD00000010014070B504460D46082129
:104E80002448FDF717FA0120FDF7FCF9022121481B
:104E9000FDF710FA04211F48FDF7F1F901211D4823
:104EA000FDF7EDF90620FFF771FC08261DE004214F
:104EB0001848FDF7E4F904F0800020B102211548FC
:104EC000FDF7F8F903E002211248FDF7D8F90220B6
:104ED000FFF75CFC04210F48FDF7ECF96006040EB7
:104EE0000220FFF753FC701EC6B2002EDFD13DB189
:104EF0000020FDF7C7F904210648FDF7C0F907E0D7
:104F000004210448FDF7BBF902210248FDF7D2F95C
:104F100070BD0000001001403010133BC2030303BA
:104F2000033B0000000000000000003300370000D9
:104F3000B6030000000000000000030000003780FE
:104F400000000000B80300000000000000000300A3
:104F50000000378000000000B703000000000000E0
:104F6000000003000000378000000000B9030000CB
:104F70000000000000000300000037800000000077
:104F8000D503000000000000000004290000378065
:104F900000000000F30600000000000000000740D1
:104FA000053101AC57020000F306000000000000CC
:104FB00000000840063101A17F400000F306000018
:104FC000000000000000084010073101103102000D
:104FD000F306000000000000000004402102D9FF99
:104FE000FFFFFF00E1050000000000000000076077
:104FF000F0050101FFFFFF00F306000000000000C4
:1050000000000740052ED29800800000F306000043
:105010000000000000000740052ED298006000004C
:10502000F30600000000000000000656043101AA4B
:1050300070FFFF00F30600000000000000000740C2
:10504000053101AC57010000F3060000000000002C
:1050500000000740052ED32400010000F3060000E5
:105060000000000000000740052ED32400020000CD
:10507000F3060000000000000000084010072ED5D5
:1050800042001200F3060000000000000000085675
:1050900010073101A186A100F30600000000000006
:1050A00000000856216402FFFFFFFF006E020000AF
:1050B000000000000000081B1B1B52FFFFFFFF0049
:1050C000A30300000000000000000208FF0000FF32
:1050D000FFFFFF00F3060000000000000000084092
:1050E00010072ED542000400B402000000000000AA
:1050F00000000201000FA0FFFFFFFF00B40200004C
:105100000000000000000200000FA0FFFFFFFF00F2
:10511000A303000000000000000002C8FF00000020
:1051200000000000A303000000000000000002D007
:10513000FF0000000000000040060000000000002A
:10514000000008F1100C7101AC540000B403000021
:1051500000000000000008FFFFFDFFFFFF05FF004B
:10516000F30600000000000000000856063101AA06
:1051700079000100F306000000000000000008565E
:10518000063101AA79000000D603000000000000EB
:1051900000000301F1FF000000000000D603000042
:1051A0000000000000000304F4FF00000000000005
:1051B000F306000000000000000005120322F15079
:1051C00000000000F30600000000000000000512CF
:1051D000032240C300000000F306000000000000AE
:1051E000000004123000000000000000F306000080
:1051F00000000000000005400322F1500000000004
:10520000F30600000000000000000740053101AC7B
:1052100051000000F306000000000000000004DF61
:105220000211040000000000F3060000000000006E
:10523000000005400322F15000000000F3060000CA
:1052400000000000000008401007310110011000AC
:10525000F3060000000000000000044021102A00B6
:105260000000000000070E091C1B1215383F3631E4
:1052700024232A2D70777E796C6B6265484F4641F6
:1052800054535A5DE0E7EEE9FCFBF2F5D8DFD6D1E6
:10529000C4C3CACD90979E998C8B8285A8AFA6A1D6
:1052A000B4B3BABDC7C0C9CEDBDCD5D2FFF8F1F6C6
:1052B000E3E4EDEAB7B0B9BEABACA5A28F888186B6
:1052C00093949D9A2720292E3B3C35321F181116A6
:1052D00003040D0A5750595E4B4C45426F68616696
:1052E00073747D7A898E878095929B9CB1B6BFB886
:1052F000ADAAA3A4F9FEF7F0E5E2EBECC1C6CFC876
:10530000DDDAD3D4696E676075727B7C51565F5865
:105310004D4A4344191E171005020B0C21262F2855
:105320003D3A33344E49404752555C5B7671787F45
:105330006A6D64633E39303722252C2B0601080F35
:105340001A1D1413AEA9A0A7B2B5BCBB9691989F25
:105350008A8D8483DED9D0D7C2C5CCCBE6E1E8EF15
:10536000FAFDF4F301000100010001000100010059
:105370000100010001010100000001000101000025
:10538000010100000100000000000000000000001A
:105390000000000000003031323334353637383900
:1053A0004142434445464030580030313233343571
:1053B00036373839616263646566403078000400CE
:1053C00000080000000000000002000100001000C2
:1053D000F053000800000020140500008C010008B4
:1053E000885600081405002084100000E801000819
:1053F000412D0102030404000927060708090204DD
:1054000006081010467265713A203433332E32305C
:105410004D487A10104465763A31304B2042523A6A
:10542000312E324B280D5077723A202B32336442A2
:105430006D200131101D6601EC021C033004800553
:105440001406080791080209020AD00BAE0CE00D01
:10545000350E120F100C10F4111012E2134214202A
:1054600015101C1681174218BB19081A1B1B421C69
:10547000A51D561E1A1F4C209321B122332312243E
:1054800012251226122712281229100E2A292BC0A3
:105490002C8A2D022E6B2F173016315032153310F7
:1054A0000C3401350536053712380839163AAA3B4F
:1054B000023C123D123E123F124012411642D443AA
:1054C0002D4414451F46124712481249124A124BE6
:1054D000124C124D164E604FFF501251100C521FBD
:1054E00053105441552656035712581459305A1820
:1054F000115B375C0A5D3F5E7F5F42189B199D1A06
:105500001E905808851DEB1E1D1F02D00A11F0D0F9
:10551000BA70D00A1330D018182A20832111221013
:1055200023A22413250C2605278F285A29292A2847
:10553000D01AA5D01C532F18D013B43239D0111261
:10554000360B2F3710D05A01D01E545519560CD097
:105550001C035950D05C015C01D03C271994D01C2D
:10556000111DE2D001203604010101641A01031962
:1055700001C1490D5A011B011B2DD8FFFFFF042952
:105580002E292D69081510BA1C2B130C5225232720
:105590002B2F390EC3E1625223580A388C1BA031DD
:1055A0006F0E2EC6141227122B122FA810D9CDDE83
:1055B0003D13210C14F14E59938DE4DB1BA8103AD6
:1055C0005BF427172104757D61800FDE47A91B114D
:1055D0007BEC07DA1ADD01518914100A08F1140175
:1055E00001454341527BF306281340211464D54200
:1055F000CA1214530BB8891430080640043101ACA8
:10560000547B3A02143711F3013FFFF083BA0312BF
:105610000712E143E4097AFC282307811AFF0121DC
:1056200092A212022240428C832F012D0502F086A5
:105630002812FF7AA03C3E088888F80C1492EC2AC5
:105640000810AD084FFCFF644A346412FF7AB414AA
:1056500012025AF178416908114970052E68656C8B
:1056600070052E6C6973740B2D69616311062E64CD
:105670006562756713BD22140895281408854A1BB6
:085680000829040114000000D8
:04000005080001519D
:00000001FF
