:020000040800F2
:10300000A8150020413200081D560008E9520008AA
:1030100019560008F53800089577000800000000F0
:10302000000000000000000000000000AB6A000883
:103030006D4A00080000000059620008916C000809
:103040005B3200085B3200085B3200083168000820
:103050005B3200085B3200085B3200085B3200081C
:103060005B3200085B3200085B3200085B3200080C
:103070005B3200085B3200085B3200085B320008FC
:103080005B3200085B3200085B3200085B320008EC
:10309000153D00085B3200085B3200085B32000817
:1030A0005B3200085B3200085B3200085B320008CC
:1030B000096D00085B3200085B3200085B320008D3
:1030C0005B3200085B3200085B3200085B320008AC
:1030D0005B3200085B320008957100085B32000823
:1030E0005B3200085B3200085B3200080000000021
:1030F00000000000000000000000000000000000D0
:1031000000000000000000005B3200085B32000895
:103110005B3200085B3200085B3200085B3200085B
:103120005B3200085B3200085B3200085B3200084B
:103130005B3200085B3200085B3200085B3200083B
:10314000113F00085B3200085B3200085B32000868
:1031500000F002F800F065F80AA090E8000C824444
:103160008344AAF10107DA4501D100F05AF8AFF221
:10317000090EBAE80F0013F0010F18BFFB1A43F055
:103180000103184710530000305300000A444FF069
:10319000000C10F8013B13F0070408BF10F8014BB6
:1031A0001D1108BF10F8015B641E05D010F8016BFB
:1031B000641E01F8016BF9D113F0080F1EBF10F85F
:1031C000014BAD1C0C1B09D16D1E58BF01F801CB82
:1031D000FAD505E014F8016B01F8016B6D1EF9D505
:1031E0009142D6D37047000000230024002500261A
:1031F000103A28BF78C1FBD8520728BF30C148BF5A
:103200000B607047642900F09780782900F0D08027
:10321000732900F0A282002070471FB51FBD10B5B2
:1032200010BD00F0CDFA1146FFF7F7FF04F08EFC59
:1032300000F0EBFA03B4FFF7F2FF03BC04F0E3FA8B
:103240000948804708480047FEE7FEE7FEE7FEE73B
:10325000FEE7FEE7FEE7FEE7FEE7FEE70348044978
:10326000044A054B7047000051310008A80F0020A8
:10327000A8150020A8110020A81100207047000008
:103280000FB4044910B503AA029800F06BFA10BC01
:103290005DF814FB0C02002070B5044685690068D7
:1032A000C10601D5302600E02026C00707D070BD3A
:1032B000D4E9012130469047206A401C20626D1EEF
:1032C000F6D570BD70B5044685690078C00707D192
:1032D00070BDD4E9012120209047206A401C206263
:1032E0006D1EF6D570BD70B50C460546012A05D099
:1032F0002878800600D5EA69002302E0012305E072
:103300005B1C934202D2E05C0028F9D1A869E61860
:10331000C01AA861286A184428622846FFF7BCFF33
:1033200004E0D5E9012114F8010B9047B442F8D329
:103330002846FFF7C7FF70BD2DE9F041064600247F
:1033400010687529314616A510D0AFF3008000280B
:1033500002DA404213A507E031688A0701D512A5B9
:1033600002E0490704D511A5012401E0AFF3008074
:1033700000210A2206F1240709E0B0FBF2FCB0FBB1
:10338000F2F302FB1C00303078541846491C002828
:10339000F3D123462A463046BDE8F04100F072B929
:1033A000000000002D0000002B00000020000000A5
:1033B00070B504460D4621461068AFF300802188A1
:1033C000090502D50F4A7A4402E00E4A7A440E32C9
:1033D000002104F1240305E000F00F060009965DCA
:1033E0005E54491C0028F7D120780023000704D53B
:1033F000702D02D009B1022311322046BDE8704081
:1034000000F040B9905000002DE9F05F8946044675
:103410004FF0000ADFF824B1FB44C0F820A020469A
:10342000E168884700287DD0252806D0D4E901210D
:103430009047206A401C2062F1E700255F46204645
:10344000E16888472028064607DB312E05D2B819E7
:1034500010F8200C08B10543F1E7A80701D525F0C5
:103460000405C4F81CA00027C4F818A02A2E09D00F
:10347000304604F0C1F938B304EB8708303EC8F891
:10348000186019E059F8041B204604EB870291618B
:10349000E1688847012F064618D1E069002820DA44
:1034A00025F020051DE0D8F8180000EB800006EBA1
:1034B00040003038C8F818002046E16888470646C2
:1034C00004F09AF90028EED1012F0AD02E2E08D14F
:1034D0002046E16888477F1C0646022F45F02005FC
:1034E000C4DBA069002803DA404245F00105A06171
:1034F000E80701D025F01005A6B1A6F14100192872
:1035000002D8203645F400654A46314620462560FB
:103510004D46FFF777FE60B1012807D0ED1D25F07D
:10352000070000E007E000F1080978E705F1040969
:1035300075E730467AE7206ABDE8F09F66500000E4
:10354000032A40F2308010F0030C00F0158011F8CF
:10355000013BBCF1020F624498BF11F801CB00F8A7
:10356000013B38BF11F8013BA2F1040298BF00F8FB
:1035700001CB38BF00F8013B11F0030300F02580B8
:10358000083AC0F0088051F8043B083A51F804CBDF
:10359000A0E80810F5E7121D5CBF51F8043B40F8A5
:1035A000043BAFF30080D20724BF11F8013B11F8B0
:1035B00001CB48BF11F8012B24BF00F8013B00F8F4
:1035C00001CB48BF00F8012B704710B5203AC0F07E
:1035D0000B80B1E81850203AA0E81850B1E8185014
:1035E000A0E81850BFF4F5AF5FEA027C24BFB1E851
:1035F0001850A0E8185044BF18C918C0BDE81040C2
:103600005FEA827C24BF51F8043B40F8043B08BFCA
:103610007047D20728BF31F8023B48BF11F8012B91
:1036200028BF20F8023B48BF00F8012B70474FF03D
:10363000000200B5134694469646203922BFA0E802
:103640000C50A0E80C50B1F12001BFF4F7AF09070E
:1036500028BFA0E80C5048BF0CC05DF804EB8900FF
:1036600028BF40F8042B08BF704748BF20F8022B42
:1036700011F0804F18BF00F8012B7047704770475A
:10368000704770472DE9F0470D469946924604462B
:1036900000F124080168880604D5E06921F01001D2
:1036A000216000E00120A84201DD471B00E0002767
:1036B000A1697A1902EB0900081AA0612078C006F6
:1036C00002D42046FFF7E8FD002608E0D4E90121F6
:1036D0001AF806009047206A401C761C20624E456E
:1036E000F4DB2078C0060AD52046FFF7D5FD06E0BA
:1036F000D4E9012130209047206A401C2062381E06
:10370000A7F10107F4DC07E0D4E9012118F805006E
:103710009047206A401C2062281EA5F10105F3DCB9
:103720002046FFF7CFFD2078000602D50220BDE835
:10373000F0870120FBE710B5436913B1AFF30080B8
:1037400001E0FFF7D0FD012010BD127800F1240147
:103750000A7000224A700122EDE711684FF0FF3233
:10376000E9E70000074B70B50D467B4400F011F807
:103770000446284600F020F810B14FF0FF3070BD2D
:10378000204670BD5343000001694A1C026108785D
:10379000704700B58FB0CDE9013100210591054991
:1037A0007944CDE9031011466846FFF72DFE0FB0AE
:1037B00000BD0000E5FFFFFF007B00F080007047C8
:1037C000754600F02BF8AE4605006946534620F0DA
:1037D0000700854618B020B5FFF740FDBDE8204042
:1037E0004FF000064FF000074FF000084FF0000BBD
:1037F00021F00701AC46ACE8C009ACE8C009ACE870
:10380000C009ACE8C0098D46704710B50446AFF357
:1038100000802046BDE81040FFF70CBD004870470F
:10382000480F002070B5002400250EE02748005DF9
:1038300048B12648005D202805D02448005D244971
:103840004855681CC5B2601CC4B222480078844246
:10385000ECDB20480570002433E004EBC40101EBED
:1038600004111D4A02EB410003F0C6F91B49087020
:1038700018480078097888421FD100250FE01448C5
:10388000405D04EBC40101EB0411134A02EB41015A
:10389000495D884200D100E005E0681CC5B20D48D2
:1038A00000788542EBDB00BF0A480078854205D1ED
:1038B0000B4951F82400804770BD00E000BF601C38
:1038C000C4B2042CC9DB00BFF6E70000520D002093
:1038D0005E0B0020390400203B0400203A04002045
:1038E0000405002010B5012002F034FD002002F094
:1038F00031FD10BD00BFFEE710B5D84A0021D84801
:1039000000F0C7FDD5480068D649096888420DD146
:10391000D248C07A30B9D148807B18B90020D2494A
:10392000087002E00120D049087010BDCB48006843
:10393000CE49096888420DD1C848007C30B9C748D3
:10394000407C18B90120CA49087002E00020C8492B
:103950000870EAE7C1480068C649096888420BD187
:10396000BE48007BF12803D10120C349087002E062
:103970000020C1490870D8E7B8480068BF49096805
:1039800088424AD1B548407BFF2800D1CDE7B348F3
:10399000407B00F0040004280FD1B948007810B92A
:1039A0000120B74908700020B64908700420B649C4
:1039B00008700020B54908702EE0A848407B00F050
:1039C000010058B1AE48007820B90120AC49087018
:1039D00001F0DEFC0120AC4908701DE09F48407BEF
:1039E000B8B90020A6490870A748007801280CD172
:1039F000A6480078401CA5490870084600780128B0
:103A000003D16421052003F0DDF800209E490870F1
:103A100002E000209D49087087E7904800689C49B3
:103A2000096888420AD18D48C07A18B9002099499E
:103A3000087002E001209749087076E7874800681F
:103A40009549096888420AD18448C07A18B900208B
:103A50009249087002E001209049087065E77F48AC
:103A600000688F49096888420AD17C48C07A18B931
:103A700000208C49087002E001208A49087054E750
:103A8000764800688849096888420AD17348C07A34
:103A900018B900208549087002E0012083490870A8
:103AA00043E76E4800688249096888424CD16B48F8
:103AB000407B00F00F00082805D06848407B00F0EC
:103AC0000F0009280FD17B480078012805D17A48DA
:103AD000007810B9012079490870002078490870F1
:103AE000744908702FE05D48407B00F00F000A2801
:103AF0001DD170480078012810D07248007818B99C
:103B00007149724800F012FA012001F041FC0020D6
:103B10006F4908703221022003F054F801206549F2
:103B2000087000206B4908706B4908800BE04B4817
:103B3000407B00F00F00062805D1022001F028FC90
:103B400000205C490870F0E6444800686349096851
:103B5000884222D14148C07A882800D1E5E63F4812
:103B6000C07A00F00F00012813D15D48007848B1F9
:103B70003A48C07A00F0F000102803D100205949DB
:103B8000087009E05648007830B90020554908709F
:103B900002E0012053490870C7E6304800685249E6
:103BA000096888422BD12D48007C00F0400028B3E2
:103BB0004E4801780078401C4C4A10700F291DD1E6
:103BC00003204B49087000204A4908702C490870AE
:103BD00040480078012805D100203E4908700120A6
:103BE00003F0EAFD01204449087044490870444943
:103BF000087040F6B831032002F0E4FF95E617485C
:103C0000006840490968884226D101203E49087071
:103C100004213E4800F046FD1049897C88421AD1B3
:103C200003213A4800F03EFD0C49497C884212D1FC
:103C30000221364800F036FD0849097C88420AD145
:103C40000121324800F02EFD0449C97B884202D18F
:103C500001202F49087068E600BF66E66005002075
:103C6000006400408C0300203A0200203C03002046
:103C7000560200201804002048020020780300208B
:103C8000400200204B02002071020020720200203E
:103C9000907F000836020020A47F00083802002030
:103CA000B87F000837020020CC7F000839020020CE
:103CB000C80300202D0200203C0200204D020020FD
:103CC0006F0200204F020020F880000800680040CA
:103CD00043020020730200206A020020DC0300205F
:103CE0004C0200203B020020F00300205E02002076
:103CF0002C0200204202002052020020100200206C
:103D000054020020140300203E0200205A0200202A
:103D10004702002010B5FFF7EFFD10BD10B5614A56
:103D20000021614800F0B5FB5E4800685F49096802
:103D3000884216D15B48C07A00F0010028B101200A
:103D40005B4908705B4908710AE05648C07A00F088
:103D50000200022804D10020554908705549087115
:103D600010BD504800685449096888420BD14D483D
:103D7000407C052803D101205049087002E0002052
:103D80004E490870ECE7474800684D490968884289
:103D900028D14448817B4A48807B814221D14148D7
:103DA000C17B4748C07B81421BD13E48017C4448CF
:103DB000007C814215D13B48417C4148407C814296
:103DC0000FD101203F4908703648807C00F00F0079
:103DD0000F2803D100203C49087002E001203A4935
:103DE0000870BDE72F48006838490968884257D1F4
:103DF0002C48407B00F00F00354908702948007BB3
:103E000009780844324908700846007818B900203B
:103E10003049087002E001202E4908702148007BDB
:103E200000F001002C4908702C48007829490978D5
:103E3000884226D000202A4908702A490870244860
:103E4000007828B9002028490870092102F0BAFE3C
:103E500000202649087026490880264908701D4818
:103E600000781E4908702448007838B90120234999
:103E7000087040F6B831032002F0A4FE002020496B
:103E8000087020480078012809D10648C07A8228A5
:103E900005D184201C49C8721C4800F03DF85FE73A
:103EA00000BF5DE76005002000680040E07F00087B
:103EB0004C0200207C020020FC81000850020020FF
:103EC000E8810008510200202D040020A0030020FA
:103ED0005F0200203C020020550200203D0200202D
:103EE0004D020020730200206F02002034040020E5
:103EF0006A020020590200205302002052020020D2
:103F0000420200204B020020040400200064004014
:103F100010B5FFF703FF10BD70B504460D462946E6
:103F2000204600F02BFB0646012070BD70B504460C
:103F30000D46132229460448FFF747FB0249204655
:103F4000FFF7EAFF70BD00000003002000B587B056
:103F500001214FF0C06002F0BDF99B4800F05EF90E
:103F60009A4800F05BF900208DF8160001208DF8CA
:103F7000170000208DF818008DF819008DF81A0030
:103F80008DF81B008DF812008DF8130007208DF8B6
:103F9000140006208DF815008D48407BADF8100008
:103FA00004A9894800F0EBF98948807BADF810003E
:103FB00004A9864800F0E3F900208DF80A000120EA
:103FC0008DF80B0000208DF80C00824800684FF639
:103FD000FF7101EA4010ADF800007F48006801EA77
:103FE0004010ADF802007D48006801EA4010ADF8CD
:103FF00004007B48006801EA4010ADF8060000208C
:10400000ADF8080001208DF80D00684600F02AF98F
:1040100001208DF80A008DF80B0000208DF80C00AF
:10402000704800684FF6FF7101EA4010ADF80000DB
:104030006D48006801EA4010ADF802006B48006866
:1040400001EA4010ADF804006948006801EA401038
:10405000ADF806000020ADF8080001208DF80D0035
:10406000684600F0FFF802208DF80A0001208DF864
:104070000B0000208DF80C00554800684FF6FF71CA
:1040800001EA4010ADF800005A48006801EA40100B
:10409000ADF802005848006801EA4010ADF804008D
:1040A0005648006801EA4010ADF806000020ADF85F
:1040B000080001208DF80D00684600F0D3F80320B9
:1040C0008DF80A0001208DF80B0000208DF80C00FF
:1040D0004B4800684FF6FF7101EA4010ADF8000050
:1040E0004848006801EA4010ADF802004648006800
:1040F00001EA4010ADF804004448006801EA4010AD
:10410000ADF806000020ADF8080001208DF80D0084
:10411000684600F0A7F804208DF80A0001208DF809
:104120000B0000208DF80C00394800684FF6FF7135
:1041300001EA4010ADF800000020ADF80200ADF833
:104140000400ADF80600ADF8080001208DF80D0060
:10415000684600F087F8012202211B4800F006F9AA
:104160000E208DF80A0001208DF80B0000208DF83C
:104170000C00264800684FF6FF7101EA4010ADF8C8
:1041800000002448006801EA4010ADF8020022480F
:10419000006801EA4010ADF804001648006801EA22
:1041A0004010ADF806000020ADF8080001208DF8A1
:1041B0000D00684600F056F801220221034800F085
:1041C000D5F807B000BD0000006400400068004062
:1041D00014030020F47F0008907F0008A47F0008EB
:1041E000B87F0008CC7F000848810008DC0300206D
:1041F0008C030020A0030020B4030020C80300208B
:104200007803002018040020F0030020E07F00085D
:104210003C030020E8810008FC81000810B504463A
:104220000B48844209D10121480602F063F80021BD
:104230004FF0007002F05EF808E00121880602F0FD
:1042400059F800214FF0806002F054F810BD0000D2
:104250000064004011B92022C26001E02022026106
:104260007047000010B50021837A012202FA03F1A1
:104270003D4A126842F001023B4B1A603A4A1C3236
:1042800012688A43384B1C331A60027BCAB9364A1B
:104290000C3212688A43344B0C331A604288C3884C
:1042A00042EA0343304A4032847A42F8343002888A
:1042B000838842EA03432C4A4032847A02EBC402E8
:1042C0005360027B012A19D1274A0C3212680A4333
:1042D000254B0C331A604288038842EA0343224A82
:1042E0004032847A42F83430C288838842EA0343F9
:1042F0001D4A4032847A02EBC4025360C27A3AB952
:10430000194A121D12688A43174B1B1D1A6006E0DA
:10431000154A121D12680A43134B1B1D1A600289AD
:1043200032B9114A143212688A430F4B14331A609F
:104330000289012A06D10C4A143212680A430A4B38
:1043400014331A60427B012A06D1074A1C321268D4
:104350000A43054B1C331A60034A126822F001021B
:10436000014B1A6010BD0000006600401AB143699D
:104370000B43436102E043698B434361704730B5AF
:10438000024600200023146824F00204146014681C
:1043900044F00104146000E05B1C546804F0010464
:1043A0001CB94FF6FF74A342F6D1546804F001041F
:1043B0000CB900206CE08C79012C04D1146844F015
:1043C0008004146003E0146824F080041460CC7945
:1043D000012C04D1146844F04004146003E0146814
:1043E00024F0400414600C7A012C04D1146844F0C9
:1043F0002004146003E0146824F0200414604C7A54
:10440000012C04D1146844F01004146003E0146813
:1044100024F0100414608C7A012C04D1146844F048
:104420000804146003E0146824F008041460CC7AD3
:10443000012C04D1146844F00404146003E01468EF
:1044400024F0040414608C78A407CD7844EA056451
:104450000D7944EA05444D7944EA05540D886D1EF2
:104460002C43D461146824F001041460002300E09C
:104470005B1C546804F001041CB14FF6FF74A342A6
:10448000F6D1546804F001040CB1002000E00120D2
:1044900030BD30B505460C46134605F5D87000EB27
:1044A0000410006800F004001872187A50B905F57D
:1044B000D87000EB0410006840F2FF7101EA505020
:1044C000186009E005F5D87000EB041000686FF083
:1044D000604101EAD000586005F5D87000EB041087
:1044E000006800F00200587205F5D87000EB041067
:1044F000406800F00F00987205F5D87000EB0410CA
:104500004068000AD87405F5D87000EB0410806884
:10451000D87205F5D87000EB04108068010A197391
:1045200005F5D87000EB04108068010C597305F58F
:10453000D87000EB04108068000E987305F5D870F1
:1045400000EB0410C068D87305F5D87000EB0410B8
:10455000C068010A197405F5D87000EB0410C06832
:10456000010C597405F5D87000EB0410C068000EFA
:10457000987421462846FFF76DFE30BD10B50246FF
:104580000020936803F08063B3F1806F00D110E0E6
:10459000936803F00063B3F1006F01D1012008E0DC
:1045A000936803F08053B3F1805F01D1022000E0F3
:1045B0000420042874D002F5C07303EB00131B68B9
:1045C00003F0010402F5C07303EB00131C600B7AC7
:1045D0007BB94B7A0C8843EA445302F5C07404EB70
:1045E00000142468234302F5C07404EB0014236014
:1045F00010E00B7A4C6843EAC4034C7A234302F57B
:10460000C07404EB00142468234302F5C07404EB67
:10461000001423608B7A03F00F038B7202F5C073D2
:1046200003EB00135B6823F00F0402F5C07303EB88
:1046300000135C6002F5C07303EB00135B688C7AB7
:10464000234302F5C07404EB001463608B7B1C06EB
:104650004B7B44EA03440B7B44EA0323CC7A234399
:1046600002F5C07404EB0014A3608B7C1C064B7C29
:1046700044EA03440B7C44EA0323CC7B234302F546
:10468000C07404EB0014E36002F5C07303EB001385
:104690001B6843F0010402F5C07303EB00131C60B8
:1046A00010BD000030B502460B460020002105E099
:1046B000545C4440034D285D4C1CE1B29942F7DB49
:1046C00030BD00002883000800B57B480078012831
:1046D00000D100BD79480078012803D078480078DF
:1046E000012800D1F5E777480078FF281DD07648EB
:1046F0000078012819D173480078012815D1FF20CE
:104700007049087071480078401C7049087008466C
:104710000078052802DB01206D4908706D4800789B
:1047200018B102206C490870D3E76C480078FF2864
:104730007DD06A480078012856D16948007804285D
:1047400023D068480078401C664908700846007805
:1047500065490978884213DD02205F49087000200E
:10476000624908606249087062480078B0BB012065
:104770006149087040F6B831032002F023FA2DE0B9
:104780000421002002F01EFA28E05C48007818B1ED
:104790001421002002F016FA59480088401C58499C
:1047A000088000205249087056480078012806D138
:1047B00053480088052802D100205249087050480B
:1047C000008878280ADB49480068782806D3012049
:1047D0003A4908704C4800784C4908700020474915
:1047E00008704B4908705AE04A48007828B94A488E
:1047F000007810B904203A49087045480078401CF8
:10480000434908703F480078012806D108460078DF
:10481000052802D104203049087031480078042866
:1048200029D13648007828B90921002000E040E06D
:1048300002F0C8F931480078401C30490870084639
:10484000007801281EDD2A480078401C284908709D
:1048500008460078052802DC03201F490870254817
:10486000007878B901202449087040F6B831032057
:1048700002F0A8F906E01B48007818B109210020D1
:1048800002F0A0F900201749087021480078032899
:1048900005DD1B48008810B1002019490880FF2061
:1048A0000E49087008480078012802D1FF20054908
:1048B000087000BF0DE700002D02002073020020E9
:1048C000410200202D040020510200205902002046
:1048D0004202002054020020100200202E0400207A
:1048E0002C0200207002002034020020300400203E
:1048F0003502002053020020520200206F020020E7
:104900006A020020570200203C0200203D020020E5
:104910006C0200203B0200206D02002010B5002434
:104920000BE00748005D012805D100200449085527
:10493000204601F00DFB601CC4B2072CF1DB10BD5A
:1049400024020020FEB50020009001900290404813
:10495000007840490978884217D03E48007800F036
:10496000010070B13A48007800F0010048B93A48B7
:104970000078012805D139480078012801D101F0DB
:1049800099FC3448007832490870002408E0344823
:10499000005D3449095D884200D003E0601CC4B268
:1049A000082CF4DB00BF082C4FD02E4903C9CDE9F9
:1049B000000108216846FFF775FE8DF80800002405
:1049C000002518E01DF80410601C1DF8000001EB24
:1049D000002086B2244901EB4500314602F07CFB01
:1049E0002149403101EB4500314602F075FB681C5E
:1049F000C5B2A01CC4B2082CE4DD042269461A48E2
:104A000000F076F908216846FFF74CFE9DF8081083
:104A1000884200D0FEBD042269461348403000F0B1
:104A200067F908216846FFF73DFE9DF808108842A7
:104A300000D0EFE7002405E00A48005D084908556A
:104A4000601CC4B2082CF7DBE4E700BFE2E700001B
:104A5000600200205F020020550200205602002064
:104A6000840200207C02002000F80108704700004A
:104A700001B500204FF0E02188610846006940F050
:104A800001000861009800010749086000BF06485E
:104A900000680028FBD14FF0E020006920F0010001
:104AA0004FF0E021086108BD1402002010B500F0AD
:104AB00033F800F001F810BD10B513480078134921
:104AC0000978884200D110BD19E011480F490978D2
:104AD000405C1049087003F08FF80C480078401CC7
:104AE0000A49087008460078FA2801DB002008709F
:104AF0000648007804490978884200D100E0E4E7DC
:104B000000BF00BFDFE700001C05002021050020DA
:104B1000580C00201D05002010B5184800781849D1
:104B20000978884200D110BD23E01648144909785D
:104B3000405C1549087008460178144802F03FFCB3
:104B400000BF1248008800F080000028F9D00C480F
:104B50000078401C0A49087008460078FA2801DBF2
:104B6000002008700648007804490978884200D17E
:104B700000E0DAE700BF00BFD5E700002205002013
:104B8000240500204C0E0020230500200044004096
:104B900070B50546042440F6FF7000F003F90446A2
:104BA000042C19D10D48006940F002000B4908613E
:104BB00008464561006940F04000086140F6FF701A
:104BC00000F0F0F80446052C06D00448006941F6D0
:104BD000FD71084001490861204670BD0020024077
:104BE00004200B49C96801F0010109B101200EE060
:104BF0000749C96801F0040109B1022007E004492E
:104C0000C96801F0100109B1032000E004207047D9
:104C1000002002400348006940F08000014908611B
:104C200070470000002002400549096821F010018A
:104C3000034A116011460968014311607047000082
:104C40000020024070B505460E4604240F2000F0F7
:104C5000A9F80446042C13D10A48006940F0010069
:104C6000084908612E800F2000F09CF80446052CAE
:104C700006D00448006941F6FE7108400149086108
:104C8000204670BD002002401FB504460020009061
:104C900001900290039004226946134800F028F81E
:104CA00008216846FFF7FEFC9DF80810884210D0E6
:104CB000042269460C48403000F01AF80821684682
:104CC000FFF7F0FC9DF80810884202D0002004B0E5
:104CD00010BD00982060019860600448DDE9001272
:104CE00006C00120F3E7000000F80108840200205C
:104CF00010B50346002005E053F8204041F820405D
:104D0000441CE0B29042F7DB10BD000010B588B043
:104D1000044620216846FEF78AFC072269461348AC
:104D2000FFF7E6FF0F216846FFF7BCFC9DF80F1068
:104D3000884213D0072269460C484030FFF7D8FF5D
:104D40000F216846FFF7AEFC9DF80F10884205D092
:104D5000042007490870002008B010BD0F226946E2
:104D60002046FEF7EDFB0120F6E7000000F0010809
:104D70001002002001460020034A106800F03800AD
:104D800008431060704700000020024002480349B9
:104D9000486003484860704723016745002002408F
:104DA000AB89EFCD70B504460425FFF719FF054622
:104DB00005E002F077FEFFF713FF0546641E012DA4
:104DC00001D1002CF5D104B90525284670BD00009D
:104DD000F0B58DB006460F46142108A8FEF727FC53
:104DE0000025002420216846FEF721FC294887423F
:104DF00002D000200DB0F0BD0F22314608A8FEF70A
:104E00009FFB0F2108A8FFF74DFC8DF82F00002510
:104E10001CE008A8415D08AA681C105C01EB00209A
:104E200080B22DF814003DF814101B4A02EB440028
:104E300002F052F93DF81410174A403202EB4400D8
:104E400002F04AF9601CC4B2A81CC5B20F2DE0DD07
:104E5000072208A91048FFF74BFF0F2108A8FFF70A
:104E600021FC9DF82F10884201D00020C2E70722C4
:104E700008A909484030FFF73BFF0F2108A8FFF7BA
:104E800011FC9DF82F10884201D00020B2E70120CC
:104E9000B0E70000AA9988EE00F0010808B50121EA
:104EA000664800F0C3F9664800F0D0F8654800F0A5
:104EB000CDF8654800F0CAF803208DF802004FF4E1
:104EC0000060ADF8000048208DF8030069465C489A
:104ED00000F020F94FF48050ADF8000018208DF854
:104EE00003006946564800F015F94FF48050ADF8BC
:104EF000000048208DF803006946524800F00AF986
:104F00004FF40050ADF8000018208DF803006946FA
:104F10004C4800F0FFF80720ADF8000048208DF85D
:104F200003006946464800F0F5F84FF4C060ADF85C
:104F3000000010208DF803006946414800F0EAF8AF
:104F40004FF480613E4800F0B2F94FF400713C48E4
:104F500000F0ADF94FF44040ADF8000010208DF89E
:104F600003006946374800F0D5F84FF40041354852
:104F700000F09DF94FF48041324800F098F94FF469
:104F80000040ADF8000004208DF8030069462C486D
:104F900000F0C0F81820ADF8000014208DF80300D0
:104FA0006946284800F0B6F81021264800F09AF922
:104FB0000821244800F096F94FF48060ADF8000015
:104FC00014208DF8030069461F4800F0A3F84FF441
:104FD00080611D4800F086F94FF40070ADF80000C4
:104FE00014208DF803006946174800F093F84FF439
:104FF0000071154800F076F94FF4E070ADF800004C
:1050000018208DF8030069460E4800F083F84FF42D
:105010000060ADF8000004208DF8030069460A48DE
:1050200000F078F82020ADF8000004208DF803008F
:105030006946044800F06EF808BD00000002300028
:1050400000080140000C01400010014010B504466A
:105050002948844208D10121042001F06BF9002184
:10506000042001F067F946E02448844208D1012178
:10507000082001F05FF90021082001F05BF93AE017
:105080001F48844208D10121102001F053F900216A
:10509000102001F04FF92EE01A48844208D1012176
:1050A000202001F047F90021202001F043F922E0FF
:1050B0001548844208D10121402001F03BF900212C
:1050C000402001F037F916E01048844208D1012150
:1050D000802001F02FF90021802001F02BF90AE057
:1050E0000B48844207D10121801501F023F90021EA
:1050F000A01501F01FF910BD00080140000C01408F
:10510000001001400014014000180140001C014043
:10511000002001402DE9F041024600250026002034
:1051200000230024002791F803C00CF00F0591F82C
:1051300003C00CF0100CBCF1000F03D091F802C0BA
:105140004CEA050591F800C0BCF1000F31D014689D
:1051500000202BE04FF0010C0CFA00F3B1F800C076
:105160000CEA03069E4220D183004FF00F0C0CFA8C
:1051700003F7BC4305FA03FC4CEA040491F803C0AE
:10518000BCF1280F06D14FF0010C0CFA00FCC2F85C
:1051900014C00AE091F803C0BCF1480F05D14FF0EC
:1051A000010C0CFA00FCC2F810C0401C0828D1D336
:1051B0001460B1F800C0BCF1FF0F34DD546800206A
:1051C0002EE000F1080C4FF0010808FA0CF3B1F8DA
:1051D00000C00CEA03069E4221D183004FF00F0C61
:1051E0000CFA03F7BC4305FA03FC4CEA040491F8FB
:1051F00003C0BCF1280F05D100F1080C08FA0CF827
:10520000C2F8148091F803C0BCF1480F07D100F137
:10521000080C4FF0010808FA0CF8C2F81080401C86
:105220000828CED35460BDE8F0810000F0B50A46EE
:105230000023002400210025174E7168C0F30345A8
:1052400083B200F44016B6F5401F08D121F070611A
:10525000114E766826F070660F4F7E6012E000F403
:105260008016B6F5801F06D1032606FA05F4A14381
:1052700041F0706106E0460D360103FA06F6B143CF
:1052800041F0706122B1460D360103FA06F6314352
:10529000014E7160F0BD0000000001400246002098
:1052A00093680B400BB1012000E000207047416182
:1052B0007047000038B5044603208DF80200022034
:1052C000ADF800001CB948208DF8030002E0102062
:1052D0008DF8030069460248FFF71CFF38BD000047
:1052E000001001400161704700BFFEE710B507A044
:1052F000FDF7C6FF0BA0FDF7C3FF0FA211A114A07D
:10530000FDF7BEFF14A0FDF7BBFF10BD435A475F7A
:10531000424D575F4E4557353A2076302E320D0AB2
:10532000000000006D6F646966792062792020209A
:105330003A20435A470D0A0031353A34353A353868
:10534000000000004A756C203139203230323000C4
:1053500025732025730D0A002A2A2A2A2A2A2A2A96
:105360002A2A2A2A2A2A2A2A2A2A2A2A2A2A2A2A9D
:105370002A2A2A2A2A2A2A2A2A2A2A2A2A2A2A2A8D
:105380002A2A2A2A2A2A2A2A2A2A2A2A2A0D0A00E4
:105390000021054A1154054A1154054A42F82010CB
:1053A000044A42F820107047240200201D02002009
:1053B00028050020440500202DE9F04780460D46D1
:1053C000914600240026802761480078022804D0F6
:1053D000002202215F48FEF7C9FF01205E490870E4
:1053E0004FF6FF7000EA0515B9F1000F05D022262F
:1053F00022225A495A48FEF7E8F8A81985B2002433
:1054000021E008EB24100078C4F34201C1F1070247
:1054100001219140084058B10020A119504A505430
:10542000601C84B20120A1195054601C84B20AE0AF
:105430000120A1194A4A5054601C84B20020A119CD
:105440005054601C84B2AC42DBDB0120454908703B
:105450000121800701F07DFC0121434801F079FC26
:1054600000214FF0804001F016FE3F4820300088B8
:1054700040F2111108433C492031088000BF4FF031
:10548000804001F0F4FCB84203DA36480078012885
:10549000F5D007F1800087B23148007810B90120BB
:1054A0002F4908703048203000884FF6EE610840E0
:1054B0002D4920310880012429E02948005D48B9A0
:1054C0002948203000884FF6EE61084026492031F7
:1054D00008800CE0601E2249085C40B92248203058
:1054E000008840F2111108431F492031088000BF95
:1054F0004FF0804001F0BBFCB84203DA1948007855
:105500000128F5D007F1800087B2601C84B2AC425C
:10551000D3DB0020104908701348203000884FF674
:10552000EE61084010492031088000214FF0804092
:1055300001F00FFC00210C4801F00BFC01220221BC
:105540000448FEF713FF002006490870BDE8F08705
:105550002C020020006400402B0200202884000858
:10556000B40500201C0200200008004010B508A06F
:10557000FDF786FE0BA0FDF783FE0FA0FDF780FE72
:1055800012A0FDF77DFE16A0FDF77AFE10BD00000B
:10559000B2E9BFB4B0E6B1BE203A766569770D0ACC
:1055A00000000000B2D9D7F7D6B8D2FD203A6C6916
:1055B00073740D0A00000000BDF8C8EBC9FDBCB64D
:1055C000203A676F746F6961700D0A00B4F2D3A15D
:1055D000B5CDC6B5203A64656275670D0A00000056
:1055E0002A2A2A2A2A2A2A2A2A2A2A2A2A2A2A2A1B
:1055F0002A2A2A2A2A2A2A2A2A2A2A2A2A2A2A2A0B
:105600002A2A2A2A2A2A2A2A2A2A2A2A2A2A2A2AFA
:105610002A2A2A2A2A0D0A0000BFFEE7704708B589
:105620004FF4A06000F074F803208DF80000002013
:105630008DF801008DF8020001208DF80300684606
:1056400000F02EF81C208DF8000000208DF80100DD
:1056500001208DF802008DF80300684600F020F864
:1056600014208DF8000000208DF8010002208DF834
:10567000020001208DF80300684600F011F8402078
:105680008DF8000001208DF8010002208DF8020045
:1056900001208DF80300684600F002F808BD000004
:1056A00070B5002100230F22C47804B3154C246880
:1056B00004F4E064C4F5E064210AC1F10403CA40C3
:1056C000447804FA03F184781440214309010E4C14
:1056D0000678A155047804F01F050124AC40057834
:1056E0006D11AD0005F1E025C5F8004109E0047831
:1056F00004F01F050124AC40044D0678761145F8EE
:10570000264070BD0CED00E000E400E080E100E028
:1057100002490143024A1160704700000000FA0587
:105720000CED00E0024A0A400243024B1A60704747
:1057300080FFFF1F08ED00E00648006800F4E0600D
:1057400005490843001D03490860BFF34F8F00BFA0
:10575000FEE700000CED00E00000FA0510B5642043
:10576000FFF786F907490848FEF7D6FBFF200749EF
:1057700008700020064908704FF41670FFF778F99A
:1057800010BD000064030020006800402D040020CC
:105790005102002010B54FF400713548FFF787FD26
:1057A0003448007830B13448007818B901203349C2
:1057B000087010BD32493348FEF7B8FB1420FFF7DC
:1057C00057F92F492F48FEF7B1FB3220FFF750F968
:1057D0002D48007870B92D492A48FEF7A7FB0A200A
:1057E000FFF746F92A492748FEF7A0FB2949254833
:1057F000FEF79CFB2848007868B93C20FFF738F991
:1058000026492048FEF792FB3C20FFF731F9234957
:105810001C48FEF78BFB0120174908701420FFF786
:1058200027F91F491748FEF781FB1E48007818B971
:105830003221042001F0C6F94FF400710C48FFF743
:1058400051FDC820FFF714F90A48007870B1012013
:105850000A49087001F0B0FF6420FFF709F9124807
:10586000007818B911490748FEF760FB00BFA0E7B0
:10587000001001403B0200206D0200202C0200209D
:10588000D48100080068004044020020088000081D
:1058900020810008348100084F020020E4800008C5
:1058A000F47F000850020020450200209480000888
:1058B00010B54FF400715348FFF7F9FC0120FFF7D2
:1058C00067FD0620FFF764FD0420FFF761FD00205F
:1058D0004D4908704D4908704D4908704D49087090
:1058E00082204D49C87200204C4908704A494C48F2
:1058F000FEF712FB4B494C48FEF718FB4B49484852
:10590000FEF714FB3C20FFF7B3F882204249C8722F
:105910004348FEF70BFB43494348FEF707FB2820AB
:10592000FFF7A6F882203C49C8723F48FEF7FEFA0E
:105930002820FFF79DF83E48007850B13D4938488F
:10594000FEF7F4FA00203C4908703A493448FEF763
:10595000EDFA31493248FEF7DFFA2F493048FEF7B9
:10596000DBFA30493048FEF7E1FA2E492E48FEF7BF
:10597000DDFA3C20FFF77CF83048007818B9304950
:105980002948FEF7D3FA4FF44870FFF771F82D4815
:105990000078012807D123492348FEF7C7FA2A498E
:1059A0002148FEF7C3FA2548007830B93220FFF7C6
:1059B0005FF823491C48FEF7B9FAC820FFF758F8EA
:1059C0004FF400710F48FFF78DFC20480078B8B9FC
:1059D00004201F490870C820FFF74AF8032001F08F
:1059E000EBFE1421002001F0EDF83220FFF740F823
:1059F00018490D48FEF79AFA17490B48FEF796FA30
:105A000010BD0000001001404B0200204A0200209F
:105A10005E02002054020020040400206D020020D9
:105A2000006400405C81000800680040140300200E
:105A30004602002038820008490200204F02002060
:105A4000F88000084C020020D08000083B020020B3
:105A50002C02002070810008500300205348006889
:105A60000F260121524801F0CCFB4FF480615148D0
:105A7000FFF71DFC08215048FFF719FC4FF4007197
:105A80004C48FFF714FC002400BF01E0FFF70EF8BC
:105A90002021474801F0E2FB0028F7D0402C00D13C
:105AA0000024434801F086FC4449085544480078E6
:105AB00020B10846015D43A0FDF7E2FB102C72DD2A
:105AC0003E48005DA11B3D4A515C88426BD1601E7F
:105AD0001146095CA01B401E105C814263D1A01ED0
:105AE0001146095CA01B801E105C81425BD13448CA
:105AF0000078D0B135A0FDF7C3FB002510E0B01C45
:105B0000201A28442D49085C3349485533A0FDF735
:105B1000B7FB3148415D2BA0FDF7B2FB681CC5B255
:105B2000B542ECDB2EA0FDF7ABFB002508E0B01C76
:105B3000201A28442149085C27494855681CC5B2E9
:105B4000B542F4DB28492448FFF742F98046B8F112
:105B5000010F04D024492048FFF73AF98046B8F1F4
:105B6000010F01D000241EE04FF400711148FFF72F
:105B7000B9FB08211048FFF7B5FB1C491C48FEF78C
:105B8000D5F9002704E06420FEF772FF781CC7B245
:105B9000112FF8DB15491648FEF7C8F96420FEF707
:105BA00067FFFFF7C9FD601CC4B26EE71802002052
:105BB000004C004000100140000C01407405002022
:105BC000140500202530325820000000B5CDC6B5A0
:105BD000CAFDBEDD00000000AE02002030780000EB
:105BE000BDE1CAF800000000AA9988EE8080000894
:105BF0000068004070B50024002500267948007830
:105C0000012803D178A0FDF73BFB70BD7E480078EA
:105C1000012803D17DA0FDF733FBF6E7804800782B
:105C2000012803D17FA0FDF72BFBEEE78248007827
:105C3000012803D181A0FDF723FBE6E78548007822
:105C400018B185A0FDF71CFBDFE78F48007801281D
:105C500003D18EA0FDF714FBD7E797480078012801
:105C600003D196A0FDF70CFBCFE79B4800689B494A
:105C7000884203D99AA0FDF703FBC6E74FF40071F1
:105C80009A48FFF714FB9A480078042846D19948AF
:105C9000007818B9984800789849087096480078B4
:105CA00001280CD194480078944908704FF4007191
:105CB0008E48FFF717FB92A0FDF7E2FAA5E78F48A1
:105CC00000788D490978884228D0904800780328C8
:105CD0000FD1FF208E490870FFF740FD01208B494E
:105CE000087041028148FFF7FDFA8AA0FDF7C8FA63
:105CF0008BE78648007804280ADA8448017889A06E
:105D0000FDF7BEFA81480078401C804908707CE7A6
:105D100000208A49087001207C49087000207C49D5
:105D20000870012002F016F801F070FD01220F2129
:105D30008348FFF741FB0220FEF79AFE8148006886
:105D4000401C8049086014217F4801F051FC054641
:105D500001F0BAFD01F0A4FD2CB14FF400716348CD
:105D6000FFF7C0FA51E73DB10120694908704102CF
:105D70005E48FFF7B7FA48E7002001F0EBFF01F0BB
:105D800045FD01220F216E48FFF716FB0220FEF7AA
:105D90006FFE14216C4801F02BFC064601F094FDC7
:105DA00001F07EFD3EB101205949087041024F4883
:105DB000FFF798FA29E74E480078032804D1634892
:105DC000007808B1FFF7CAFC01F07EFD01F068FD24
:105DD00000204F4908704FF400714448FFF782FAE1
:105DE00000BF12E72D020020C6FBB3B5414343D7E5
:105DF000B4CCACA3ACCDA3D6B94C46D5D2D1B0D29D
:105E0000A3BFD8C6F70D0A0040020020CAD6B6AF1D
:105E1000D2A3BFD84C4620B9D8C4A3CABD0D0A002E
:105E200041020020C9E8D6C3CEAAB5CDC6B5B9D8BF
:105E3000C4A3CABD0D0A000043020020B0B4D4AD13
:105E4000B3B5BDE2CBF8BCFCD0DDC3DFC4A3BFE972
:105E50000D0A000042020020B3B5C3C5C8ABB9D8D3
:105E6000CAB1A3ACD4ADB3B5D5D2B5BDD4BFB3D749
:105E7000A3ACC1A2BCB4B9D8B5F4B5CDC6B5D5D222
:105E8000D4BFB3D70D0A000073020020BFAACBF81D
:105E9000D7B4CCACC1ACD0F8B0EBB8F6D0A1CAB195
:105EA000D5D2B5BDD4BFB3D7D7D4B6AFB9D8B1D595
:105EB000B5CDC6B50D0A00004D020020CFA8BBF03D
:105EC000CAB1C3C5C3BBD3D0B6AFD7F7A3A8C8ABBD
:105ED000B9D8A3A90D0A000018020020008D2700E0
:105EE0003732D0A1CAB10D0A0000000000100140F5
:105EF0002C0200202D0400203C0200206102002022
:105F0000B3B5C3C5BFAA0D0A0000000034040020C9
:105F10002E040020D4ADB3B5D5D2D4BFB3D70D0A6B
:105F200000000000D4ADB3B5D5D2D4BFB3D7CAFDFD
:105F3000BEDDC0DBBCD32025640D0A006F0200204B
:105F4000AE0200203004002074050020540200201E
:105F500010B50446072C0FD2DFE804F0040F21230C
:105F60002A84F500984800689849096808449649C9
:105F7000086001209649087023E19648007850B9DE
:105F800095499648FDF7D2FF0520FEF771FD94492B
:105F90009248FDF7CBFF0120FFF7FAF911E1FFF777
:105FA000CBFB00208F4908700320FFF7F1F908E1CF
:105FB0008DA0FDF765F98E48007800283DD18D4809
:105FC000007858B98C48007840B98C48007828B9D6
:105FD0008B48007810B98B48007890B17D480078E4
:105FE00000BB7D497D48FDF7A1FF0220FEF740FD83
:105FF0007B497A48FDF79AFF83497848FDF796FF79
:1060000010E08248007830B900F028F93C20FEF713
:106010002FFD00F023F93221062000F0D3FD0420EB
:10602000FFF7B6F9012072490870674800696749AF
:10603000096908446449086113E000206C4908704C
:106040007248007830B900F009F93C20FEF710FDE5
:1060500000F004F93221062000F0B4FD0420FFF71F
:1060600097F9AEE06A480078C01E05286CD2DFE8D8
:1060700000F0031F38516C006648007800F0010002
:1060800048B165495548FDF751FF01206349087043
:106090006349087008E063495048FDF747FF002056
:1060A0005E4908705E49087000205949087068E030
:1060B0005848007800F0010048B157494748FDF7BB
:1060C00035FF0120434908705549487008E056499A
:1060D0004248FDF72BFF00203E49087050494870A8
:1060E0004FE04C48007800F0010048B101204F49D2
:1060F00008704B49487148493848FDF717FF08E0D8
:1061000000204A4908704649487146493348FDF71E
:106110000DFF36E03F48007800F0010048B13E49ED
:106120002E48FDF703FF0120414908703C49887063
:1061300008E03C492948FDF7F9FE00203C49087079
:10614000374988701DE024E01AE03248007800F0FA
:10615000010050B130492148FDF7E8FE00203549E3
:10616000087001202E49C87009E02E491B48FDF730
:10617000DDFE01202F49087000202949C87000E089
:1061800000BF00BF0020224908700520FFF700F97A
:1061900017E03C20FEF76CFC2648007868B12649E1
:1061A0002648FDF7C3FE3C20FEF762FC2249234847
:1061B000FDF7BCFE22A0FDF763F80620FFF7E8F824
:1061C00000BF00BF10BD00004405002028050020CE
:1061D00010020020440200202081000800680040D6
:1061E0003481000852020020B6CFB5E7000000005D
:1061F0002C04002036020020370200203802002044
:10620000390200203A0200200880000850020020D5
:10621000720200205F0200208080000841020020FE
:106220007C02002094800008A88000084F02002013
:106230004502002046020020108200080064004051
:10624000BDF8C8EBB7C0B5C1000000000149086245
:106250007047000000000E427047000010B5822019
:106260000F49C8720F48FDF761FE0120FEF700FCE0
:106270000D490E48FDF75AFE82200949C8720948A7
:10628000FDF754FE0120FEF7F3FB09490748FDF72F
:106290004DFE82200249C8720248FDF747FE10BD3C
:1062A00004040020006400401C80000800680040D6
:1062B0003080000810B504490448FDF737FE044952
:1062C0000248FDF733FE10BD44800008006800401E
:1062D0005880000829B1064AD2690243044BDA61AA
:1062E00004E0034AD2698243014BDA61704700003F
:1062F0000010024029B1064A12690243044B1A6198
:1063000004E0034A12698243014B1A61704700009E
:106310000010024029B1064A92690243044B9A6177
:1063200004E0034A92698243014B9A61704700007E
:106330000010024029B1064AD2680243044BDA60D9
:1063400004E0034AD2688243014BDA6070470000E0
:1063500000100240014908607047000040044242BA
:106360000348406A40F0807001494862704700006D
:106370000010024010B500F053F84FF4803000F0E8
:1063800075F900F0D7F90446012C1DD11020FEF755
:106390004BFC0220FEF7EEFC002000F05BF9002031
:1063A00000F0A2F9002000F093F900BF312000F0C6
:1063B0002BF90028FAD0012000F0B0F900BF00F05E
:1063C00041F90428FBD11FE0012000F075F91020ED
:1063D000FEF72AFC0220FEF7CDFC002000F03AF97F
:1063E000002000F081F9002000F072F900BF2120A8
:1063F00000F00AF90028FAD0002000F08FF900BF61
:1064000000F020F90028FBD101211D20FFF782FFB9
:1064100001210248FFF75EFF10BD000000000818D0
:106420001348006840F001001149086008464068C0
:10643000104908400E494860084600680E49084067
:106440000B4908600846006820F480200860084670
:10645000406820F4FE0048600846006820F0A05024
:1064600008604FF47F0088600020C8627047000019
:10647000001002400000FFF0FFFFF6FE2DE9F041A2
:1064800000210022002500230026002400278C463E
:10649000DFF86081D8F8048008F00C0121B10429EC
:1064A00007D0082959D109E0DFF84C81C0F80080F5
:1064B00058E0DFF84481C0F8008053E0DFF8348111
:1064C000D8F8048008F47012DFF82881D8F8048026
:1064D00008F48035920C0D2A01D0921C00E00622AF
:1064E00035B9DFF8188102FB08F8C0F8008033E006
:1064F000DFF80081D8F82C8008F48036DFF8F480CB
:10650000D8F82C8008F00F0808F1010446B9DFF82C
:10651000E880B8FBF4F808FB02F8C0F800801BE044
:10652000DFF8D080D8F82C80C8F3031808F10107F1
:10653000DFF8C080D8F82C80C8F3032808F1020CDB
:10654000DFF8B480B8FBF7F808FB0CF8B8FBF4F8F8
:1065500008FB02F8C0F8008004E0DFF89C80C0F877
:10656000008000BF00BFDFF88C80D8F8048008F0FE
:10657000F0010909DFF8888018F80130D0F80080B0
:1065800028FA03F8C0F80480DFF86880D8F804809F
:1065900008F4E061090ADFF8688018F80130D0F8E3
:1065A000048028FA03F8C0F80880DFF84880D8F89B
:1065B000048008F46051C90ADFF8448018F80130FB
:1065C000D0F8048028FA03F8C0F80C80DFF82480A3
:1065D000D8F8048008F44041890BDFF8288018F8C7
:1065E0000130D0F80C80B8FBF3F8C0F81080BDE89B
:1065F000F08100000010024000127A0000093D0006
:10660000000000201000002010B5014600220023E9
:1066100000204A11012A02D1094C236806E0022A0F
:1066200002D1074C236A01E0054C636A01F01F02A6
:10663000012494401C400CB1012000E0002010BD5A
:10664000001002400248406800F00C007047000053
:106650000010024001460020034A506820F0F0007C
:10666000084350607047000000100240114909685B
:1066700021F480310F4A11601146096821F480210C
:106680001160B0F5803F03D0B0F5802F0ED106E049
:106690000849096841F48031064A116007E005495C
:1066A000096841F4A021034A116000E000BF00BF67
:1066B0007047000000100240014908607047000068
:1066C00000004242014908607047000080044242D5
:1066D00001460020034A506820F4E06008435060FF
:1066E000704700000010024001460020034A506835
:1066F00020F4605040EAC100506070470010024032
:1067000001490860704700003C0442420249096A9E
:106710000143014A11627047001002400146002007
:10672000034A506820F0030008435060704700009F
:106730000010024038B5002000900024002500BF62
:106740003120FFF761FF05460098401C009000983B
:10675000B0F5A06F01D0002DF2D03120FFF754FF2B
:1067600008B1012400E00024204638BD0249098810
:106770008143014A118070470428004010B5012070
:10678000FFF764FDFDF7AEF80120FFF79BFF00BFA8
:106790006120FFF739FF0028FAD04FF40070FFF7AF
:1067A000B5FF0120FFF7ACFF00F0D2F84FF47A609C
:1067B00000F0B4F800F0C2F8002000F0A1F800F0FA
:1067C000BDF80121084600F08BF800F0B7F810BDC5
:1067D0000348008840F0100001490880704700001D
:1067E00004280040034800884FF6EF710840014933
:1067F0000880704704280040002103480188001FDA
:10680000008841EA004070471C28004001460020F3
:10681000064A12880A40D0B2044A121F12880A405F
:1068200012B108B1012000E00020704704280040A8
:1068300070B526480078012807D1FFF797FF244854
:106840000068401C2249086070BD0120FFF7DEFF90
:10685000002838D0002500F071F80120FFF786FFEE
:1068600000F06CF8FFF7C8FF194908600846056892
:106870001848006888B100240DE01648005D012822
:1068800007D1154850F82400A84202D2012013492C
:106890000855601CC4B2042CEFDB0E48406888B178
:1068A00004240DE00B48005D012807D10A4850F888
:1068B0002400A84202D2012008490855601CC4B235
:1068C000072CEFDB00BF00BFBEE700002B0200205B
:1068D000180200201D020020440500202402002090
:1068E00029B1064A12880243044B1A8004E0034A85
:1068F00012888243014B1A80704700000028004034
:1069000000B50246FFF764FF100C03490880091D1B
:106910000A80FFF767FF00BD1828004000B5024657
:10692000FFF756FFC2F3034003490880091D0A80A0
:10693000FFF758FF00BD00000828004000BF0348D3
:10694000008800F020000028F9D07047042800409B
:10695000074800884FF6F77108400549088000BFD6
:106960000348008800F008000028F9D070470000B4
:106970000428004030B503460C461546002207E0C7
:10698000184600F008F824F812009B1C501C82B234
:10699000AA42F5DB30BD0146088870472DE9F05F5B
:1069A00080468A461746B8F1006F02D333488045C7
:1069B00001D3BDE8F09FFEF7E9F9A8F1006B4FEABB
:1069C0009B25CBF34809C9F50074A74200DC3C467F
:1069D0004DE04FF0006101EB85208A142849FFF754
:1069E000C9FF00260BE009EB0600254931F810002D
:1069F0004FF6FF71884200D003E0701C86B2A642B9
:106A0000F1DB00BFA6421BDA4FF0006101EB8520ED
:106A1000FEF7BEF8002608E03AF8160006EB09017A
:106A2000174A22F81100701C86B2A642F4DB4FF020
:106A3000006101EB85208A14114900F023F804E07D
:106A400022465146404600F01DF8A74200D10FE013
:106A50006D1C4FF000090AEB440AA044381B87B2B2
:106A6000B7F5007F02DD4FF4007400E03C46B0E76C
:106A700000BFFEF7CFF800BF9BE70000000004084E
:106A80005E0700202DE9F04105460E46174600241A
:106A900007E036F814102846FEF7D4F8AD1C601C49
:106AA00084B2BC42F5DBBDE8F081704710B500F060
:106AB00001F810BD0CB50020019000903E48006820
:106AC00040F480303C49086000BF3B48006800F457
:106AD000003000900198401C0190009818B901986E
:106AE000B0F5A06FF1D13448006800F4003010B167
:106AF0000120009001E0002000900098012857D16B
:106B00002E48006840F010002C49086008460068D4
:106B100020F0030008600846006840F002000860AA
:106B2000254840682449486008464068486008464F
:106B3000406840F4806048600846C06A20490840C8
:106B40001D49C8620846006840F08060086000BFC8
:106B50001948006800F000600028F9D01648406825
:106B600020F47C10144948600846406840F4E8105E
:106B700048600846006840F08070086000BF0E481A
:106B8000006800F000700028F9D00B48406820F041
:106B90000300094948600846406840F00200486028
:106BA00000BF0548406800F00C000828F9D101E05A
:106BB00000BFFEE70CBD00000010024000200240B4
:106BC00000F0FEFF0022074B1A54074A42F820103B
:106BD000064A12680A44064B43F820200122054B5E
:106BE0001A547047240200202805002018020020B3
:106BF000440500201D0200200146002001E0421C47
:106C0000D0B20A5C002AFAD17047042808D14FF0AC
:106C1000E021096941F004014FF0E022116107E031
:106C20004FF0E021096921F004014FF0E0221161E9
:106C30007047000070B50420FFF7E7FF4FF4FA71CA
:106C4000B1F1807F00D31DE021F07F40401E4FF066
:106C5000E022506150170F22002807DA13071D0E9B
:106C6000094B00F00F04241F1D5503E013071C0EF1
:106C7000064B1C5400BF00204FF0E022906107201B
:106C8000106100BF70BD000018ED00E000E400E0FE
:106C90000448006820B103480068401E01490860AC
:106CA000704700001402002010B51448006840F03E
:106CB00001001249086008464068114908400F4920
:106CC0004860084600680F4908400C4908600846BB
:106CD000006820F4802008600846406820F4FE0028
:106CE00048600846006820F0A05008604FF47F001C
:106CF00088600020C862FFF7D9FE10BD0010024076
:106D00000000FFF0FFFFF6FE10B50121880700F03C
:106D1000B1F858B10121880700F018F800214FF0B0
:106D2000804000F016F800200149087010BD0000F6
:106D30001C02002021B1028842F08002028004E09F
:106D4000028840F27F331A4002807047CA430282B1
:106D5000704721B1028842F00102028004E00288FB
:106D600040F2FE331A4002807047000000B587B041
:106D700001210520FFF7AEFA3F20ADF814000020F6
:106D8000ADF81000ADF81600ADF812008DF818003F
:106D900004A92E4800F082F96020ADF8000001201F
:106DA000ADF802000020ADF804002020ADF8060088
:106DB0000220ADF808000820ADF80A000020ADF868
:106DC0000C00ADF80E006946204800F06DF808216F
:106DD0001E4800F0A5F869461C4800F0ABF80821F1
:106DE0001A4800F0F5F86946184800F0FFF8082145
:106DF000164800F047F901211448FFF79BFF0121D5
:106E0000124800F025F800211048FFF7A2FF4FF6C6
:106E1000FF70ADF814000720ADF810000020ADF8A9
:106E20001600ADF812008DF8180004A94FF080404C
:106E300000F034F901218807FFF788FF012211468D
:106E4000900700F028F807B000BD000000080040DF
:106E500031B1B0F8442042F40042A0F8442005E0EB
:106E6000B0F84420C2F30E02A0F844207047014657
:106E7000888C704730B50246002000230024158A14
:106E800005EA0103958905EA010413B10CB101205B
:106E900000E0002030BD1AB183890B43838102E0FA
:106EA00083898B438381704770B5002400220023BF
:106EB000058C4FF6FE7635400584028C8388048B62
:106EC0004FF68C752C400D882C43751E2A400D8979
:106ED0002A434D882A43104DA84202D00F4DA842A4
:106EE00013D14FF6F7752A404D892A434FF6FB75AB
:106EF0002A408D882A4347F6FF652B4047F6FF5509
:106F00002B408D892B43CD892B4383800483CD88EF
:106F10008586028470BD0000002C014000340140D1
:106F20000A460021018B4FF6F77319401143018384
:106F30007047000070B5002400220023058C4FF636
:106F4000EF7635400584028C8388048B48F6FF4534
:106F50002C400D884FF6FF7606EA05252C434FF6A8
:106F6000DF752A400D8906EA05152A434D8806EA91
:106F700005152A43144DA84202D0144DA8421DD134
:106F80004FF67F752A404D894FF6FF7606EA0515C4
:106F90002A434FF6BF752A408D8806EA05152A4315
:106FA00047F6FF352B4047F2FF752B408D8906EAE7
:106FB00085052B43CD8906EA85052B438380048311
:106FC000CD880587028470BD002C0140003401404B
:106FD0000A460021018B4FF2FF7319404FF6FF73F1
:106FE00003EA0223194301837047000070B50024AF
:106FF00000220023058C4FF6FF6635400584028C85
:107000008388848B4FF68C752C400D882C434FF66B
:10701000FF552A400D894FF6FF7606EA05252A43DB
:107020004D8806EA05252A43144DA84202D0144D86
:10703000A8421DD14FF2FF752A404D894FF6FF76C9
:1070400006EA05252A434FF6FF352A408D8806EAD1
:1070500005252A4346F6FF752B4045F6FF752B4064
:107060008D8906EA05152B43CD8906EA05152B43C4
:1070700083808483CD888587028470BD002C014085
:10708000003401400A460021818B4FF6F773194006
:10709000114381837047818470470000028802F0A9
:1070A0008F020280CA884B881A4303881A430280E1
:1070B0008A8882850A880285054A904202D0054A5C
:1070C000904201D10A7A0286012282827047000032
:1070D000002C01400034014013B50446012201A9EF
:1070E0002046FFF75BFC1CBD10B586B004460121AD
:1070F0000520FFF70FF901214804FFF7EBF8042002
:10710000ADF8040018208DF8070003208DF8060064
:1071100001A91E48FDF7FEFF0820ADF80400042079
:107120008DF8070001A91948FDF7F4FF029400202B
:10713000ADF80C00ADF80E00ADF81000ADF814007D
:107140000C20ADF8120002A9114800F0E3F801226A
:1071500040F225510E4800F0B8F801210C4800F02B
:1071600050F84FF4E060FEF7D3FA26208DF80000C7
:1071700000208DF8010003208DF8020001208DF819
:1071800003006846FEF78CFA06B010BD0008014007
:107190000044004010B5002440F225510E4800F094
:1071A0006AF8012817D10C4800F004F9C4B20B4862
:1071B0000B49097844540A480078401C0849087073
:1071C00008460078FA2801DB0020087040F22551BB
:1071D000014800F007F810BD00440040580C0020A2
:1071E0001C05002010B50022002340F66A14A142BD
:1071F00000D100BF0A1201249440A3B2DC430480F2
:1072000010BD21B1828942F40052828104E082895A
:107210004DF6FF731A408281704700001FB54FF48E
:10722000165000900020ADF80400ADF80600ADF84F
:107230000800ADF80C000420ADF80A0069460648C5
:1072400000F068F800210448FFF7DBFF4FF4E1305D
:10725000FFF74AFF1FBD0000004C0040024600201F
:10726000B1F5007F00D100BF13880B400BB10120A6
:1072700000E00020704770B502460024002300257E
:10728000002040F66A16B14200D100BFC1F342159A
:1072900001F01F03012606FA03F3012D02D196899E
:1072A000334006E0022D02D1168A334001E0968A6F
:1072B00033400C12012606FA04F41688344013B148
:1072C0000CB1012000E0002070BDF0B503460024A1
:1072D00000260025002040F66A17B94200D100BF01
:1072E0001846C1F3421401F01F06012707FA06F5FC
:1072F000012C01D10C3004E0022C01D1103000E04F
:1073000014301AB107682F43076002E00768AF43E3
:107310000760F0BD2DE9F04786B005460E46002413
:10732000A24600BF00BF0027B08900B100BF2F46B2
:107330002C8A4CF6FF700440F08804432C82AC8900
:107340004EF6F3100440B088318908437189084330
:107350000443AC81AC8A4FF6FF400440B08904433B
:10736000AC8201A8FFF78AF81148874202D1DDF804
:1073700010A001E0DDF80CA00AEBCA0000EB0A1037
:1073800031688900B0FBF1F86420B8FBF0F004012B
:107390002009642101FB1089322000EB0910B0FBA9
:1073A000F1F000F00F0004432C8106B0BDE8F08737
:1073B0000038014001468888C0F308007047C1F3D7
:1073C00008028280704700002DE9F04100206849E2
:1073D000087068480068684908600846007849787D
:1073E00000EB012084B2644880786349C97800EBDF
:1073F000012085B26148FFF7CEFA06465F48801C3F
:10740000FFF7C9FA0746B44218D0BD4216D04FF66E
:10741000FF7086420BD1874209D121465748FFF7BA
:107420005BFE29465548801CFFF756FE09E004E044
:1074300053A0FBF725FFFDF739FBF9E757A0FBF752
:107440001FFF5A495A48FCF767FDC820FDF710FB9B
:107450005848FDF719FC5748007818B101205649E3
:10746000087002E00020544908705248407818B172
:1074700001205249087002E00020504908704D4830
:10748000807818B101204E49087002E000204C4974
:1074900008704848C07818B101204A49087002E0D5
:1074A0000020484908704348007918B10120464936
:1074B000087002E00020444908703E48407918B145
:1074C00001204249087002E0002040490870394814
:1074D000807918B101203E49087002E000203C4943
:1074E00008703448C07918B101203A49087002E0A8
:1074F0000020384908700020374908703748FDF7E8
:1075000005FC3548007830B935480078012802D1AB
:1075100003203449087014210020FFF753FB7B201F
:10752000FFF772F8012801D12F490870FEF718FF04
:10753000012000F00FFC00F069F9012806D10220BB
:107540001A49C8721A48FCF7E7FC0AE04FF4806158
:107550002648FDF7C7FE4FF47A70FDF789FAFEF76B
:10756000EBF840F6B8310320FFF72CFBBDE8F081C3
:1075700010020020F0F7FF1F5A020020F0FF010860
:10758000C8EDBCFED4DAB2BBD5FDB3A3B5C4D3B24B
:10759000BCFEC9CFD4CBD0D00D0A0000C8EDBCFED4
:1075A000D5FDB3A3D4CBD0D00D0A00001403002026
:1075B000006400407C0200204102002044020020C0
:1075C00045020020460200204C0200204F0200200D
:1075D0004E020020530200202D020020AE020020A7
:1075E0003B0200202C020020570200200010014026
:1075F0002DE9F047ADF5167D82468846002408EB5C
:107600004800C0EBC8104FF6FF71A1EBC00086B276
:10761000B14600274FF416716846FCF708F80025BC
:1076200001205549087055480078022809D00022E9
:1076300002215348FCF79AFE002202215148FCF730
:1076400095FE01205049087001218007FFF781FB5A
:1076500031464FF08040FFF71EFD4C48007801286E
:1076600029D126E000BF20214948FDF717FE18B9AF
:10767000454800780128F6D000BF20214448FDF796
:107680000DFE012803D1404800780128F5D04FF0C5
:107690008040FFF7ECFB8146A9EB060080B22DF895
:1076A00017004E46781CC7B23748007808B9002446
:1076B00000E0D7E700BF00253FE064B900BF3DF818
:1076C00015000222642100F067F810B1601CC4B2FA
:1076D00031E000242FE0022C01D0052C0CD13DF824
:1076E00015000222342100F057F8012802D1601C55
:1076F000C4B220E00024E2E7012C0CD13DF81500D3
:107700000222642100F048F8012802D1601CC4B2B2
:1077100011E000240FE0032C01D0042C0BD13DF824
:10772000150002224D2100F037F8012802D1601C1B
:10773000C4B200E00024681CC5B2BD42BDDB062C0B
:1077400000D0002400200C49087000214FF0804038
:10775000FFF7FFFA00200C490870012202210848B7
:10776000FCF704FE012202210648FCF7FFFD20463B
:107770000DF5167DBDE8F0872B0200202C020020BD
:1077800000640040006800401C0200202F0200201E
:10779000000C014000BFFEE710B50346002441FA8B
:1077A00002F40819984202DB081B984201DD002010
:1077B00010BD0120FCE7000070B5044665012912E8
:1077C00005484173857305490548FCF7AFFB02493D
:1077D0000348FCF7A1FB70BD280300200C810008C2
:1077E0000068004005E0002100E0491C0429FCD3AA
:1077F000401E0028F7D1704730380A2801D20120F6
:10780000704700207047014600BF704770B50020E8
:10781000204908702049087020480178002000F0B5
:10782000EBFA00F05FFA46F2040000F03FFB0024A0
:107830000CE03220FFF7D6FF612000F0CBF800F01B
:107840000F05032D00D103E0601CC4B2322CF0DB25
:1078500000BF322C01DB002070BD46F2080000F0B2
:1078600025FB00240CE03220FFF7BCFF612000F074
:10787000B1F800F00F05052D00D103E0601CC4B283
:10788000322CF0DB00BF322C01DB0020E4E70120CA
:10789000E2E7000019000020180000201500002079
:1078A00010B546F2100000F001FB6420FFF79AFFCC
:1078B000612000F08FF800F00F04012C01D10120AD
:1078C00010BD0020FCE7000070B500200F490870D3
:1078D0000F49087046F2020000F0E8FA00240CE0BC
:1078E0003220FFF77FFF612000F074F800F00F05F1
:1078F000022D00D103E0601CC4B2322CF0DB00BFCB
:10790000322C01DB002070BD0120FCE719000020B3
:10791000180000202DE9F0410025002700266D20E9
:1079200000F058F8044604F0800008B145F0200546
:1079300004F0100018B145F0100546F0100604F0F0
:10794000080018B145F0080546F0080604F00400E8
:1079500018B145F0040546F0040604F0020018B121
:1079600045F0020546F0020604F0010018B145F0AA
:10797000010546F0010604F0400008B145F001059C
:1079800004F0200008B145F0010505F5D64000F0EF
:107990008DFA6A2000F01EF8044604F0080018B1C1
:1079A00047F0040746F0200604F0200018B147F025
:1079B000020746F0800604F0100018B147F00107F6
:1079C00046F0400607F5D44000F070FA3046BDE8B6
:1079D000F081000070B5044644F08000012100F001
:1079E0007BFA00F011F805460120FDF763FC022147
:1079F0000448FDF777FC01210248FDF773FC284697
:107A000070BD00000010014070B5002404211B4827
:107A1000FDF74DFC0020FDF74DFC01211748FDF757
:107A200046FC0220FFF7DEFE0220FFF7DBFE082502
:107A30001CE004211148FDF755FC6006040E0220ED
:107A4000FFF7D0FE02210D48FDF728FC00F00100F1
:107A500010B144F0010400E000BF04210748FDF725
:107A600026FC0220FFF7BEFE681EC5B2002DE0D145
:107A700004210248FDF71BFC204670BD00100140A8
:107A800010B503A0FBF7FCFB01200549087010BDF1
:107A900044656275675F666C61670D0A00000000EF
:107AA0001405002008B500200090FF20009002E09F
:107AB0000098401E009000980028F9D108BD0000F1
:107AC00000BF054A128802F04002002AF9D0C2B273
:107AD000014B1B1D1A807047004400400022022108
:107AE0001548FCF743FC002202211448FCF73EFC39
:107AF00000214FF08040FFF72CF945F25551104816
:107B0000FFF7EAFA0E48FEF746FF45F25551884264
:107B100002D00B48FFF7E0FA00BF0A48006800F403
:107B2000E06009490843001D06490860BFF34F8F14
:107B300000BF00BFFEE70000006400400068004096
:107B4000FC2F00080CED00E00000FA054FF4405156
:107B50004FF00060FDF7E6FDFEF70CFCFDF79EF927
:107B6000FEF70CFEFFF766F8FFF700F9FCF7EEF9F9
:107B7000FFF754FBFDF753FDFFF726FC1BA0FBF7B7
:107B80007FFB31E01B48007805281DD2DFE800F0BC
:107B900003040A1016001BE0002016490870FEF7C7
:107BA00029F815E0002013490870FDF781FE0FE069
:107BB000002010490870FDF7EDFD09E000200D4997
:107BC0000870FDF74BFF03E000200A49087000BF72
:107BD00000BFFCF779FDFCF7B5FEFCF767FF054831
:107BE000007808B9FCF79AFECCE7000072756E20A9
:107BF000617070001002002010B5174800780D2841
:107C000003D101201549087024E01448007898B188
:107C1000114800780A280BD11148007811490870E2
:107C2000FBF700FE00200E4908700C49087011E0B7
:107C300000200A4908700DE0074800780A49084A00
:107C40001278885400200549087005480078401CC7
:107C50000349087010BD00001D0500201E0500200E
:107C60001F05002039040020520D002010B56120AE
:107C7000FFF7B0FE044644F0100424F0200404F59D
:107C8000C24000F013F90D20FFF7A4FE044644F0B3
:107C9000E00404F5506000F009F9FFF73BFE002016
:107CA00004490870044908700449086004490870D0
:107CB00010BD00001E0000201F000020200000203A
:107CC0002400002070B506460D464DB1002405E0A5
:107CD00036F8140000F0EAF8601CC4B2AC42F7DBDE
:107CE00070BD000010B56920FFF774FE044624F053
:107CF0000504074800781F2802DD44F0020401E073
:107D000024F0020404F5D24000F0D0F810BD0000C9
:107D10001500002010B5044604F5CA4000F0C6F86E
:107D200010BD000008B500F0A1F84FF40070ADF8E8
:107D3000000004208DF8030003208DF8020069463E
:107D40000348FDF7E7F900F087F8FFF7BDFD08BD30
:107D5000000C014010B50446002202211D48FCF72A
:107D600005FB002202211C48FCF700FBFFF7DAFFAD
:107D70000C211A48FFF7A6FF0C211948FFF7A2FFB4
:107D800024B108211748FFF79DFF03E0082116489A
:107D9000FFF798FF18211548FFF794FF1D2114489D
:107DA000FFF790FF0B211348FFF78CFFFFF75EFFF3
:107DB000FFF776FD3020FFF7ADFFFFF727FD01222B
:107DC00002210448FCF7D2FA012202210248FCF702
:107DD000CDFA10BD00640040006800403C01002066
:107DE00054010020FC0100206C0100207C010020D7
:107DF000AC010020E60100202DE9F04107460D46C8
:107E0000FFF762FD4520FFF7E5FD044604F08F040F
:107E100024F001048DB13FB10E48007810B1681E06
:107E2000C6B203E02E4601E0681EC6B209480078DB
:107E300000B104E044F0010401E0BDE8F08104F584
:107E40008A4000F033F806F58C4000F02FF800BFB0
:107E5000F3E700001400002010B547F6FF7000F0B3
:107E600025F83220FCF704FE10BD000008B5032001
:107E70008DF802000720ADF8000010208DF80300F7
:107E800069460948FDF746F90820ADF800001020C2
:107E90008DF8030069460448FDF73CF904210248C7
:107EA000FDF705FA08BD00000010014010B50446BA
:107EB0000021C4F3062000F00FF8E0B2002100F02A
:107EC0000BF80620FFF78EFC01210248FDF70AFAA5
:107ED00010BD00000010014070B504460D46082199
:107EE0002448FDF7FFF90120FDF7E4F902212148BC
:107EF000FDF7F8F904211F48FDF7D9F901211D48C4
:107F0000FDF7D5F90620FFF76DFC08261DE00421DA
:107F10001848FDF7CCF904F0800020B10221154883
:107F2000FDF7E0F903E002211248FDF7C0F9022055
:107F3000FFF758FC04210F48FDF7D4F96006040E42
:107F40000220FFF74FFC701EC6B2002EDFD13DB1FC
:107F50000020FDF7AFF904210648FDF7A8F907E076
:107F600004210448FDF7A3F902210248FDF7BAF9FC
:107F700070BD0000001001403010133BC20303032A
:107F8000033B000000000000000000330037000049
:107F9000B60300000000000000000300000037806E
:107FA00000000000B8030000000000000000030013
:107FB0000000378000000000B70300000000000050
:107FC000000003000000378000000000B90300003B
:107FD00000000000000003000000378000000000E7
:107FE000D5030000000000000000042900003780D5
:107FF00000000000F3060000000000000000074041
:10800000053101AC57020000F3060000000000003B
:1080100000000840063101A17F400000F306000087
:10802000000000000000084010073101103102007C
:10803000F306000000000000000004402102D9FF08
:10804000FFFFFF00F30600000000000000000840F2
:108050001007310110010600F306000000000000C7
:10806000000004402106A8FFFFFFFF00E10500001B
:108070000000000000000760F0050101FFFFFF00A5
:10808000F30600000000000000000740052ED29813
:1080900000800000F3060000000000000000074020
:1080A000052ED29800600000F306000000000000DA
:1080B00000000740052ED29800400000F3060000A3
:1080C0000000000000000656043101AA70FFFF0006
:1080D000F30600000000000000000740053101AC7D
:1080E00057010000F30600000000000000000740F8
:1080F000052ED32400010000F3060000000000005C
:1081000000000740052ED32400020000F306000003
:10811000000000000000084010072ED542001200A9
:10812000F3060000000000000000085610073101AF
:10813000A186A100F3060000000000000000085620
:10814000216402FFFFFFFF006E020000000000003C
:108150000000081B1B1B52FFFFFFFF00A3030000D2
:108160000000000000000208FF0000FFFFFFFF000A
:10817000F3060000000000000000084010072ED5A4
:1081800042000400B40200000000000000000201F0
:10819000000FA0FFFFFFFF00B4020000000000007E
:1081A00000000200000FA0FFFFFFFF00F306000029
:1081B0000000000000000440021101FFFFFFFF006B
:1081C000A303000000000000000002C8FF00000040
:1081D00000000000A303000000000000000002D027
:1081E000FF0000000000000040060000000000004A
:1081F000000008F1100C7101AC540000B403000041
:1082000000000000000008FFFFFDFFFFFF05FF006A
:10821000F30600000000000000000856063101AA25
:1082200079000100F306000000000000000008567D
:10823000063101AA790000003A02000000000000A7
:1082400000000822F3013FFCF0FFFF00D60300000E
:108250000000000000000301F1FF0000000000002A
:10826000D60300000000000000000304F4FF00003B
:1082700000000000F30600000000000000000512EE
:108280000322F15000000000F3060000000000008F
:1082900000000512032240C300000000F3060000A6
:1082A0000000000000000412300000000000000088
:1082B000F306000000000000000005400322F1501A
:1082C00000000000F306000000000000000007406E
:1082D000053101AC51000000F30600000000000071
:1082E000000004DF0211040000000000F30600009B
:1082F00000000000000005400322F15000000000D3
:10830000F3060000000000000000084010073101E3
:1083100010011000F30600000000000000000440FF
:1083200021102A000000000000070E091C1B121576
:10833000383F363124232A2D70777E796C6B626545
:10834000484F464154535A5DE0E7EEE9FCFBF2F535
:10835000D8DFD6D1C4C3CACD90979E998C8B828525
:10836000A8AFA6A1B4B3BABDC7C0C9CEDBDCD5D215
:10837000FFF8F1F6E3E4EDEAB7B0B9BEABACA5A205
:108380008F88818693949D9A2720292E3B3C3532F5
:108390001F18111603040D0A5750595E4B4C4542E5
:1083A0006F68616673747D7A898E878095929B9CD5
:1083B000B1B6BFB8ADAAA3A4F9FEF7F0E5E2EBECC5
:1083C000C1C6CFC8DDDAD3D4696E676075727B7CB5
:1083D00051565F584D4A4344191E171005020B0CA5
:1083E00021262F283D3A33344E49404752555C5B95
:1083F0007671787F6A6D64633E39303722252C2B85
:108400000601080F1A1D1413AEA9A0A7B2B5BCBB74
:108410009691989F8A8D8483DED9D0D7C2C5CCCB64
:10842000E6E1E8EFFAFDF4F30100010001000100CC
:108430000100010001000100010101000000010034
:108440000101000001010000010000000000000027
:1084500000000000000000000000303132333435ED
:108460003637383941424344454640305800303170
:10847000323334353637383961626364656640308B
:108480007800040000080000000000000002000165
:1084900000001000B484000800000020280500003F
:1084A0008C3100085087000828050020801000004B
:1084B000E8310008412D01020304040009270607E2
:1084C0000809020406081010467265713A20343318
:1084D000332E32304D487A10104465763A31304BA5
:1084E0002042523A312E324B280D5077723A202BCF
:1084F000323364426D200131101D6601EC021C0311
:10850000300480051406080791080209020AD00BFE
:10851000AE0CE00D350E120F100C10F4111012E21B
:108520001342142015101C1681174218BB19081A83
:108530001B1B421CA51D561E1A1F4C209321B12245
:108540003323122412251226122712281229100E64
:108550002A292BC02C8A2D022E6B2F173016315052
:10856000321533100C340135053605371238083909
:10857000163AAA3B023C123D123E123F12401241F3
:108580001642D4432D4414451F461247124812493F
:10859000124A124B124C124D164E604FFF501251A0
:1085A000100C521F5310544155265603571258149D
:1085B00059305A18115B375C0A5D3F5E7F5F421885
:1085C0009B199D1A1E905808851DEB1E1D1F02D079
:1085D0000A11F0D0BA70D00A1330D018182A2083AC
:1085E0002111221023A22413250C2605278F285A97
:1085F00029292A28D01AA5D01C532F18D013B432F9
:1086000039D01112360B2F3710D05A01D01E5455C5
:1086100019560CD01C035950D05C015C01D03C278A
:108620001994D01C111DE2D0012012043401016400
:108630001A0108C30101490D19181905C91A0114B5
:108640002DD8FFFFFF042933293269081510BA1C01
:108650002B130C522523272B2F390EC3E162A223A3
:108660005D6F0E2EC6141227122B122FA810D9CD13
:10867000DE3D13210C14F14E59938DE4DB1BA81041
:108680003A5BF427172104757D61800FDE47A91B33
:10869000117BEC07DE1ADD01518914100A08F11470
:1086A0000101454341527BF306281340211464D550
:1086B00042121292A52B02D0CD41B928DB0BB8147F
:1086C00030080640043101AC547B3A02143711F3F0
:1086D000013FFFF083BA03120712E143E4097AFC79
:1086E000282307811AFF01218AA278112240428C97
:1086F000832F012D0502F0862812FF7AA03C3E0848
:108700008888F80C1492EC2A0810AD084FFCFF641E
:108710004A346412FF7AB41412025AF1781907C16C
:10872000052E76696577052E6C69737400082B67D2
:108730006F746F696170062E646562756713ED5220
:1087400014086D551408DD7A1B088104011400001B
:04000005080031516D
:00000001FF
